{
  "address": "0xc9be229ddFD2556B15e35DA2b34962AADCd3349b",
  "abi": [
    {
      "inputs": [
        {
          "internalType": "address",
          "name": "_checkpointManager",
          "type": "address"
        },
        {
          "internalType": "address",
          "name": "_fxRoot",
          "type": "address"
        }
      ],
      "stateMutability": "nonpayable",
      "type": "constructor"
    },
    {
      "anonymous": false,
      "inputs": [
        {
          "indexed": true,
          "internalType": "address",
          "name": "contractAddress",
          "type": "address"
        },
        {
          "indexed": true,
          "internalType": "uint256",
          "name": "chainId",
          "type": "uint256"
        }
      ],
      "name": "ProjectRegistered",
      "type": "event"
    },
    {
      "anonymous": false,
      "inputs": [
        {
          "indexed": true,
          "internalType": "bytes32",
          "name": "role",
          "type": "bytes32"
        },
        {
          "indexed": true,
          "internalType": "bytes32",
          "name": "previousAdminRole",
          "type": "bytes32"
        },
        {
          "indexed": true,
          "internalType": "bytes32",
          "name": "newAdminRole",
          "type": "bytes32"
        }
      ],
      "name": "RoleAdminChanged",
      "type": "event"
    },
    {
      "anonymous": false,
      "inputs": [
        {
          "indexed": true,
          "internalType": "bytes32",
          "name": "role",
          "type": "bytes32"
        },
        {
          "indexed": true,
          "internalType": "address",
          "name": "account",
          "type": "address"
        },
        {
          "indexed": true,
          "internalType": "address",
          "name": "sender",
          "type": "address"
        }
      ],
      "name": "RoleGranted",
      "type": "event"
    },
    {
      "anonymous": false,
      "inputs": [
        {
          "indexed": true,
          "internalType": "bytes32",
          "name": "role",
          "type": "bytes32"
        },
        {
          "indexed": true,
          "internalType": "address",
          "name": "account",
          "type": "address"
        },
        {
          "indexed": true,
          "internalType": "address",
          "name": "sender",
          "type": "address"
        }
      ],
      "name": "RoleRevoked",
      "type": "event"
    },
    {
      "anonymous": false,
      "inputs": [
        {
          "indexed": true,
          "internalType": "address",
          "name": "contractAddress",
          "type": "address"
        },
        {
          "indexed": true,
          "internalType": "uint256",
          "name": "tokenId",
          "type": "uint256"
        },
        {
          "indexed": true,
          "internalType": "address",
          "name": "owner",
          "type": "address"
        }
      ],
      "name": "TokenRegistered",
      "type": "event"
    },
    {
      "inputs": [],
      "name": "ADMIN_ROLE",
      "outputs": [
        {
          "internalType": "bytes32",
          "name": "",
          "type": "bytes32"
        }
      ],
      "stateMutability": "view",
      "type": "function"
    },
    {
      "inputs": [],
      "name": "DEFAULT_ADMIN_ROLE",
      "outputs": [
        {
          "internalType": "bytes32",
          "name": "",
          "type": "bytes32"
        }
      ],
      "stateMutability": "view",
      "type": "function"
    },
    {
      "inputs": [],
      "name": "SEND_MESSAGE_EVENT_SIG",
      "outputs": [
        {
          "internalType": "bytes32",
          "name": "",
          "type": "bytes32"
        }
      ],
      "stateMutability": "view",
      "type": "function"
    },
    {
      "inputs": [],
      "name": "checkpointManager",
      "outputs": [
        {
          "internalType": "contract ICheckpointManager",
          "name": "",
          "type": "address"
        }
      ],
      "stateMutability": "view",
      "type": "function"
    },
    {
      "inputs": [],
      "name": "fxChildTunnel",
      "outputs": [
        {
          "internalType": "address",
          "name": "",
          "type": "address"
        }
      ],
      "stateMutability": "view",
      "type": "function"
    },
    {
      "inputs": [],
      "name": "fxRoot",
      "outputs": [
        {
          "internalType": "contract IFxStateSender",
          "name": "",
          "type": "address"
        }
      ],
      "stateMutability": "view",
      "type": "function"
    },
    {
      "inputs": [
        {
          "internalType": "bytes32",
          "name": "role",
          "type": "bytes32"
        }
      ],
      "name": "getRoleAdmin",
      "outputs": [
        {
          "internalType": "bytes32",
          "name": "",
          "type": "bytes32"
        }
      ],
      "stateMutability": "view",
      "type": "function"
    },
    {
      "inputs": [
        {
          "internalType": "bytes32",
          "name": "role",
          "type": "bytes32"
        },
        {
          "internalType": "address",
          "name": "account",
          "type": "address"
        }
      ],
      "name": "grantRole",
      "outputs": [],
      "stateMutability": "nonpayable",
      "type": "function"
    },
    {
      "inputs": [
        {
          "internalType": "bytes32",
          "name": "role",
          "type": "bytes32"
        },
        {
          "internalType": "address",
          "name": "account",
          "type": "address"
        }
      ],
      "name": "hasRole",
      "outputs": [
        {
          "internalType": "bool",
          "name": "",
          "type": "bool"
        }
      ],
      "stateMutability": "view",
      "type": "function"
    },
    {
      "inputs": [
        {
          "internalType": "address",
          "name": "mainnetContract",
          "type": "address"
        },
        {
          "internalType": "uint256",
          "name": "tokenId",
          "type": "uint256"
        }
      ],
      "name": "jsonDataForToken",
      "outputs": [
        {
          "internalType": "string",
          "name": "",
          "type": "string"
        }
      ],
      "stateMutability": "nonpayable",
      "type": "function"
    },
    {
      "inputs": [
        {
          "internalType": "bytes32",
          "name": "",
          "type": "bytes32"
        }
      ],
      "name": "processedExits",
      "outputs": [
        {
          "internalType": "bool",
          "name": "",
          "type": "bool"
        }
      ],
      "stateMutability": "view",
      "type": "function"
    },
    {
      "inputs": [
        {
          "internalType": "bytes",
          "name": "inputData",
          "type": "bytes"
        }
      ],
      "name": "receiveMessage",
      "outputs": [],
      "stateMutability": "nonpayable",
      "type": "function"
    },
    {
      "inputs": [
        {
          "internalType": "address",
          "name": "contractAddress",
          "type": "address"
        }
      ],
      "name": "registerProject",
      "outputs": [],
      "stateMutability": "payable",
      "type": "function"
    },
    {
      "inputs": [
        {
          "internalType": "address",
          "name": "contractAddress",
          "type": "address"
        },
        {
          "internalType": "uint256",
          "name": "tokenId",
          "type": "uint256"
        }
      ],
      "name": "registerToken",
      "outputs": [],
      "stateMutability": "nonpayable",
      "type": "function"
    },
    {
      "inputs": [
        {
          "internalType": "address",
          "name": "",
          "type": "address"
        }
      ],
      "name": "registeredContract",
      "outputs": [
        {
          "internalType": "bool",
          "name": "",
          "type": "bool"
        }
      ],
      "stateMutability": "view",
      "type": "function"
    },
    {
      "inputs": [
        {
          "internalType": "address",
          "name": "",
          "type": "address"
        }
      ],
      "name": "registeredProjects",
      "outputs": [
        {
          "internalType": "bool",
          "name": "",
          "type": "bool"
        }
      ],
      "stateMutability": "view",
      "type": "function"
    },
    {
      "inputs": [
        {
          "internalType": "bytes32",
          "name": "role",
          "type": "bytes32"
        },
        {
          "internalType": "address",
          "name": "account",
          "type": "address"
        }
      ],
      "name": "renounceRole",
      "outputs": [],
      "stateMutability": "nonpayable",
      "type": "function"
    },
    {
      "inputs": [
        {
          "internalType": "bytes32",
          "name": "role",
          "type": "bytes32"
        },
        {
          "internalType": "address",
          "name": "account",
          "type": "address"
        }
      ],
      "name": "revokeRole",
      "outputs": [],
      "stateMutability": "nonpayable",
      "type": "function"
    },
    {
      "inputs": [
        {
          "internalType": "address",
          "name": "_fxChildTunnel",
          "type": "address"
        }
      ],
      "name": "setFxChildTunnel",
      "outputs": [],
      "stateMutability": "nonpayable",
      "type": "function"
    },
    {
      "inputs": [
        {
          "internalType": "bytes4",
          "name": "interfaceId",
          "type": "bytes4"
        }
      ],
      "name": "supportsInterface",
      "outputs": [
        {
          "internalType": "bool",
          "name": "",
          "type": "bool"
        }
      ],
      "stateMutability": "view",
      "type": "function"
    }
  ],
  "transactionHash": "0xd712856ca998f26d3bf30228f97e31e146054349f536d7f9a224b9733479e89b",
  "args": [
    "0x2890bA17EfE978480615e330ecB65333b880928e",
    "0x3d1d3E34f7fB6D26245E6640E1c50710eFFf15bA"
  ],
  "solcInputHash": "d398454a3ef31f23740059116f3fe0e2",
  "bytecode": "0x60806040523480156200001157600080fd5b5060405162002afb38038062002afb83398101604081905262000034916200017a565b600280546001600160a01b038085166001600160a01b0319928316179092556001805492841692909116919091179055818162000073600033620000a9565b6200009f7fa49807205ce4d355092ef5a8a18f56e8913cf4a201fbe287825b095693c2177533620000a9565b50505050620001b1565b620000b58282620000b9565b5050565b60008281526005602090815260408083206001600160a01b038516845290915290205460ff16620000b55760008281526005602090815260408083206001600160a01b03851684529091529020805460ff19166001179055620001193390565b6001600160a01b0316816001600160a01b0316837f2f8788117e7eff1d82e926ec794901d17c78024a50270940304540a733656f0d60405160405180910390a45050565b80516001600160a01b03811681146200017557600080fd5b919050565b600080604083850312156200018d578182fd5b62000198836200015d565b9150620001a8602084016200015d565b90509250929050565b61293a80620001c16000396000f3fe60806040526004361061011f5760003560e01c806377a77400116100a0578063aea4e49e11610064578063aea4e49e146103a1578063c0857ba0146103de578063d547741f146103fe578063de9b771f1461041e578063f953cec71461043e57600080fd5b806377a77400146102f157806391d1485414610304578063972c4928146103245780639f2440211461035c578063a217fddf1461038c57600080fd5b80632f2ff15d116100e75780632f2ff15d1461021d57806336568abe1461023d5780633a0ba7d91461025d578063607f2d421461028d57806375b238fc146102bd57600080fd5b806301ffc9a71461012457806302ca5994146101595780630e387de61461017b578063213f15ea146101bd578063248a9ca3146101ed575b600080fd5b34801561013057600080fd5b5061014461013f366004612411565b61045e565b60405190151581526020015b60405180910390f35b34801561016557600080fd5b50610179610174366004612353565b610495565b005b34801561018757600080fd5b506101af7f8c5261668696ce22758910d05bab8f186d6eb247ceac2af2e82c7dc17669b03681565b604051908152602001610150565b3480156101c957600080fd5b506101e06101d8366004612353565b606092915050565b6040516101509190612617565b3480156101f957600080fd5b506101af61020836600461237e565b60009081526005602052604090206001015490565b34801561022957600080fd5b50610179610238366004612396565b6105f4565b34801561024957600080fd5b50610179610258366004612396565b61061f565b34801561026957600080fd5b5061014461027836600461231b565b60006020819052908152604090205460ff1681565b34801561029957600080fd5b506101446102a836600461237e565b60046020526000908152604090205460ff1681565b3480156102c957600080fd5b506101af7fa49807205ce4d355092ef5a8a18f56e8913cf4a201fbe287825b095693c2177581565b6101796102ff36600461231b565b610699565b34801561031057600080fd5b5061014461031f366004612396565b6107e7565b34801561033057600080fd5b50600354610344906001600160a01b031681565b6040516001600160a01b039091168152602001610150565b34801561036857600080fd5b5061014461037736600461231b565b60066020526000908152604090205460ff1681565b34801561039857600080fd5b506101af600081565b3480156103ad57600080fd5b506101796103bc36600461231b565b600380546001600160a01b0319166001600160a01b0392909216919091179055565b3480156103ea57600080fd5b50600254610344906001600160a01b031681565b34801561040a57600080fd5b50610179610419366004612396565b610812565b34801561042a57600080fd5b50600154610344906001600160a01b031681565b34801561044a57600080fd5b50610179610459366004612439565b610838565b60006001600160e01b03198216637965db0b60e01b148061048f57506301ffc9a760e01b6001600160e01b03198316145b92915050565b6001600160a01b03821660009081526006602052604090205460ff1615156001146104ed5760405162461bcd60e51b815260206004820152600360248201526203530360ec1b60448201526064015b60405180910390fd5b6040516331a9108f60e11b8152600481018290526001600160a01b03831690636352211e9060240160206040518083038186803b15801561052d57600080fd5b505afa92505050801561055d575060408051601f3d908101601f1916820190925261055a91810190612337565b60015b610565575050565b604080516001600160a01b0380861660208301526000928201839052606082018590528316608082015260a00160405160208183030381529060405290506105ac81610843565b816001600160a01b031683856001600160a01b03167f54b3ebe8b0073d73b5c9ded2d9ef5187ff2ac92d1b2114f26c7d6a01d0162d9260405160405180910390a450505b5050565b60008281526005602052604090206001015461061081336108ae565b61061a8383610912565b505050565b6001600160a01b038116331461068f5760405162461bcd60e51b815260206004820152602f60248201527f416363657373436f6e74726f6c3a2063616e206f6e6c792072656e6f756e636560448201526e103937b632b9903337b91039b2b63360891b60648201526084016104e4565b6105f08282610998565b806001600160a01b0316638da5cb5b6040518163ffffffff1660e01b815260040160206040518083038186803b1580156106d257600080fd5b505afa925050508015610702575060408051601f3d908101601f191682019092526106ff91810190612337565b60015b6107095750565b6001600160a01b038116331461074b5760405162461bcd60e51b81526020600482015260076024820152664150503a34303960c81b60448201526064016104e4565b604080516001600160a01b0384811660208301528316818301526000606082018190526080808301919091528251808303909101815260a090910190915261079281610843565b6001600160a01b038316600081815260066020526040808220805460ff1916600190811790915590519092917ffdf4a8a8dc4667faae73dca5f6e80e7ab228bf1a37f9d91534e24a319de46c3791a350505b50565b60009182526005602090815260408084206001600160a01b0393909316845291905290205460ff1690565b60008281526005602052604090206001015461082e81336108ae565b61061a8383610998565b600061061a826109ff565b60015460035460405163b472047760e01b81526001600160a01b039283169263b4720477926108799291169085906004016125f3565b600060405180830381600087803b15801561089357600080fd5b505af11580156108a7573d6000803e3d6000fd5b5050505050565b6108b882826107e7565b6105f0576108d0816001600160a01b03166014610ce5565b6108db836020610ce5565b6040516020016108ec929190612551565b60408051601f198184030181529082905262461bcd60e51b82526104e491600401612617565b61091c82826107e7565b6105f05760008281526005602090815260408083206001600160a01b03851684529091529020805460ff191660011790556109543390565b6001600160a01b0316816001600160a01b0316837f2f8788117e7eff1d82e926ec794901d17c78024a50270940304540a733656f0d60405160405180910390a45050565b6109a282826107e7565b156105f05760008281526005602090815260408083206001600160a01b0385168085529252808320805460ff1916905551339285917ff6391f5c32d9c69d2a47ea670b442974b53935d1edc7fd64eb21e047a839171b9190a45050565b60606000610a0c83610ece565b90506000610a1982610f2d565b90506000610a2683610f64565b9050600081610a3484610f9b565b610a3d86611191565b604051602001610a4f939291906125c6565b60408051601f1981840301815291815281516020928301206000818152600490935291205490915060ff1615610ad35760405162461bcd60e51b8152602060048201526024808201527f4678526f6f7454756e6e656c3a20455849545f414c52454144595f50524f434560448201526314d4d15160e21b60648201526084016104e4565b6000818152600460205260408120805460ff19166001179055610af5856111bb565b90506000610b0282611321565b9050610b0d816113cd565b6003546001600160a01b03908116911614610b785760405162461bcd60e51b815260206004820152602560248201527f4678526f6f7454756e6e656c3a20494e56414c49445f46585f4348494c445f54604482015264155393915360da1b60648201526084016104e4565b6000610b8387611404565b9050610ba3610b93846020015190565b87610b9d8a61142e565b84611458565b610bfb5760405162461bcd60e51b815260206004820152602360248201527f4678526f6f7454756e6e656c3a20494e56414c49445f524543454950545f505260448201526227a7a360e91b60648201526084016104e4565b610c2985610c088961177f565b610c118a6117a9565b84610c1b8c6117d3565b610c248d6117fd565b611827565b506000610c358361195c565b90507f8c5261668696ce22758910d05bab8f186d6eb247ceac2af2e82c7dc17669b036610c6b610c668360006119a6565b6119ec565b14610cb85760405162461bcd60e51b815260206004820152601f60248201527f4678526f6f7454756e6e656c3a20494e56414c49445f5349474e41545552450060448201526064016104e4565b6000610cc384611a67565b806020019051810190610cd691906124b2565b9b9a5050505050505050505050565b60606000610cf48360026127bc565b610cff906002612683565b67ffffffffffffffff811115610d2557634e487b7160e01b600052604160045260246000fd5b6040519080825280601f01601f191660200182016040528015610d4f576020820181803683370190505b509050600360fc1b81600081518110610d7857634e487b7160e01b600052603260045260246000fd5b60200101906001600160f81b031916908160001a905350600f60fb1b81600181518110610db557634e487b7160e01b600052603260045260246000fd5b60200101906001600160f81b031916908160001a9053506000610dd98460026127bc565b610de4906001612683565b90505b6001811115610e78576f181899199a1a9b1b9c1cb0b131b232b360811b85600f1660108110610e2657634e487b7160e01b600052603260045260246000fd5b1a60f81b828281518110610e4a57634e487b7160e01b600052603260045260246000fd5b60200101906001600160f81b031916908160001a90535060049490941c93610e7181612845565b9050610de7565b508315610ec75760405162461bcd60e51b815260206004820181905260248201527f537472696e67733a20686578206c656e67746820696e73756666696369656e7460448201526064016104e4565b9392505050565b6040805160208101909152606081526000610f18610f138460408051808201825260008082526020918201528151808301909252825182529182019181019190915290565b611a91565b60408051602081019091529081529392505050565b606061048f8260000151600881518110610f5757634e487b7160e01b600052603260045260246000fd5b6020026020010151611bc3565b600061048f8260000151600281518110610f8e57634e487b7160e01b600052603260045260246000fd5b60200260200101516119ec565b6040805160208101909152600081528151606091901561048f57600080610fc3600086611c6e565b60f81c90506001811480610fda57508060ff166003145b1561109e57600185516002610fef91906127bc565b610ff991906127db565b67ffffffffffffffff81111561101f57634e487b7160e01b600052604160045260246000fd5b6040519080825280601f01601f191660200182016040528015611049576020820181803683370190505b5092506000611059600187611c6e565b9050808460008151811061107d57634e487b7160e01b600052603260045260246000fd5b60200101906001600160f81b031916908160001a9053506001925050611110565b6002855160026110ae91906127bc565b6110b891906127db565b67ffffffffffffffff8111156110de57634e487b7160e01b600052604160045260246000fd5b6040519080825280601f01601f191660200182016040528015611108576020820181803683370190505b509250600091505b60ff82165b83518110156111885761113f61112e60ff8516836127db565b611139906002612683565b87611c6e565b84828151811061115f57634e487b7160e01b600052603260045260246000fd5b60200101906001600160f81b031916908160001a905350806111808161285c565b915050611115565b50505092915050565b600061048f8260000151600981518110610f8e57634e487b7160e01b600052603260045260246000fd5b6111df60405180606001604052806060815260200160608152602001600081525090565b6112078260000151600681518110610f5757634e487b7160e01b600052603260045260246000fd5b60208281018290526040805180820182526000808252908301528051808201909152825181529181019082015261123d81611d0b565b156112525761124b81611a91565b825261130d565b60208201518051600090611268906001906127db565b67ffffffffffffffff81111561128e57634e487b7160e01b600052604160045260246000fd5b6040519080825280601f01601f1916602001820160405280156112b8576020820181803683370190505b5090506000808360210191508260200190506112d682828551611d44565b60408051808201825260008082526020918201528151808301909252845182528085019082015261130690611a91565b8652505050505b61131683611191565b604083015250919050565b60408051608081018252600091810182815260608083019390935281526020810191909152600061137d836000015160038151811061137057634e487b7160e01b600052603260045260246000fd5b6020026020010151611a91565b8360400151815181106113a057634e487b7160e01b600052603260045260246000fd5b6020026020010151905060405180604001604052808281526020016113c483611a91565b90529392505050565b600061048f82602001516000815181106113f757634e487b7160e01b600052603260045260246000fd5b6020026020010151611dbf565b600061048f8260000151600581518110610f8e57634e487b7160e01b600052603260045260246000fd5b606061048f8260000151600781518110610f5757634e487b7160e01b600052603260045260246000fd5b60008061148c8460408051808201825260008082526020918201528151808301909252825182529182019181019190915290565b9050600061149982611a91565b9050606080856000806114ab8b610f9b565b90508051600014156114c7576000975050505050505050611777565b60005b865181101561176e5781518311156114ed57600098505050505050505050611777565b61151d87828151811061151057634e487b7160e01b600052603260045260246000fd5b6020026020010151611dd9565b95508580519060200120841461153e57600098505050505050505050611777565b61156187828151811061137057634e487b7160e01b600052603260045260246000fd5b94508451601114156116605781518314156115d1578c805190602001206115a286601081518110610f5757634e487b7160e01b600052603260045260246000fd5b8051906020012014156115c057600198505050505050505050611777565b600098505050505050505050611777565b60008284815181106115f357634e487b7160e01b600052603260045260246000fd5b016020015160f81c905060108111156116185760009950505050505050505050611777565b61164b868260ff168151811061163e57634e487b7160e01b600052603260045260246000fd5b6020026020010151611e67565b9450611658600185612683565b93505061175c565b8451600214156115c057600061169a61169387600081518110610f5757634e487b7160e01b600052603260045260246000fd5b8486611e95565b83519091506116a98286612683565b141561170c578d805190602001206116db87600181518110610f5757634e487b7160e01b600052603260045260246000fd5b8051906020012014156116fa5760019950505050505050505050611777565b60009950505050505050505050611777565b806117235760009950505050505050505050611777565b61172d8185612683565b93506117538660018151811061163e57634e487b7160e01b600052603260045260246000fd5b945061175c9050565b806117668161285c565b9150506114ca565b50505050505050505b949350505050565b600061048f8260000151600381518110610f8e57634e487b7160e01b600052603260045260246000fd5b600061048f8260000151600481518110610f8e57634e487b7160e01b600052603260045260246000fd5b600061048f8260000151600081518110610f8e57634e487b7160e01b600052603260045260246000fd5b606061048f8260000151600181518110610f5757634e487b7160e01b600052603260045260246000fd5b6002546040516320a9cea560e11b8152600481018490526000918291829182916001600160a01b03909116906341539d4a9060240160a06040518083038186803b15801561187457600080fd5b505afa158015611888573d6000803e3d6000fd5b505050506040513d601f19601f820116820180604052508101906118ac91906123c5565b5093505092509250611903828b6118c391906127db565b6040805160208082018f90528183018e9052606082018d905260808083018d90528351808403909101815260a09092019092528051910120908588611fc8565b61194f5760405162461bcd60e51b815260206004820152601c60248201527f4678526f6f7454756e6e656c3a20494e56414c49445f4845414445520000000060448201526064016104e4565b9998505050505050505050565b604080516020810190915260608152604051806020016040528061199e846020015160018151811061137057634e487b7160e01b600052603260045260246000fd5b905292915050565b604080518082019091526000808252602082015282518051839081106119dc57634e487b7160e01b600052603260045260246000fd5b6020026020010151905092915050565b805160009015801590611a0157508151602110155b611a0a57600080fd5b6000611a19836020015161212d565b90506000818460000151611a2d91906127db565b9050600080838660200151611a429190612683565b9050805191506020831015611a5e57826020036101000a820491505b50949350505050565b606061048f8260200151600281518110610f5757634e487b7160e01b600052603260045260246000fd5b6060611a9c82611d0b565b611aa557600080fd5b6000611ab0836121a8565b905060008167ffffffffffffffff811115611adb57634e487b7160e01b600052604160045260246000fd5b604051908082528060200260200182016040528015611b2057816020015b6040805180820190915260008082526020820152815260200190600190039081611af95790505b5090506000611b32856020015161212d565b8560200151611b419190612683565b90506000805b84811015611bb857611b588361222b565b9150604051806040016040528083815260200184815250848281518110611b8f57634e487b7160e01b600052603260045260246000fd5b6020908102919091010152611ba48284612683565b925080611bb08161285c565b915050611b47565b509195945050505050565b8051606090611bd157600080fd5b6000611be0836020015161212d565b90506000818460000151611bf491906127db565b905060008167ffffffffffffffff811115611c1f57634e487b7160e01b600052604160045260246000fd5b6040519080825280601f01601f191660200182016040528015611c49576020820181803683370190505b5090506000816020019050611a5e848760200151611c679190612683565b82856122cf565b6000611c7b600284612877565b15611cc357601082611c8e60028661269b565b81518110611cac57634e487b7160e01b600052603260045260246000fd5b0160200151611cbe919060f81c61288b565b611d01565b601082611cd160028661269b565b81518110611cef57634e487b7160e01b600052603260045260246000fd5b0160200151611d01919060f81c6126af565b60f81b9392505050565b8051600090611d1c57506000919050565b6020820151805160001a9060c0821015611d3a575060009392505050565b5060019392505050565b80611d4e57505050565b60208110611d865782518252611d65602084612683565b9250611d72602083612683565b9150611d7f6020826127db565b9050611d4e565b60006001611d958360206127db565b611da190610100612714565b611dab91906127db565b935183518516941916939093179091525050565b8051600090601514611dd057600080fd5b61048f826119ec565b60606000826000015167ffffffffffffffff811115611e0857634e487b7160e01b600052604160045260246000fd5b6040519080825280601f01601f191660200182016040528015611e32576020820181803683370190505b509050805160001415611e455792915050565b6000816020019050611e6084602001518286600001516122cf565b5092915050565b8051600090602114611e7857600080fd5b60008083602001516001611e8c9190612683565b51949350505050565b60008080611ea286610f9b565b90506000815167ffffffffffffffff811115611ece57634e487b7160e01b600052604160045260246000fd5b6040519080825280601f01601f191660200182016040528015611ef8576020820181803683370190505b509050845b8251611f099087612683565b811015611f98576000878281518110611f3257634e487b7160e01b600052603260045260246000fd5b01602001516001600160f81b03191690508083611f4f89856127db565b81518110611f6d57634e487b7160e01b600052603260045260246000fd5b60200101906001600160f81b031916908160001a905350508080611f909061285c565b915050611efd565b50808051906020012082805190602001201415611fb85781519250611fbd565b600092505b509095945050505050565b600060208251611fd89190612877565b1561201c5760405162461bcd60e51b8152602060048201526014602482015273092dcecc2d8d2c840e0e4dedecc40d8cadccee8d60631b60448201526064016104e4565b60006020835161202c919061269b565b9050612039816002612714565b851061207f5760405162461bcd60e51b81526020600482015260156024820152744c65616620696e64657820697320746f6f2062696760581b60448201526064016104e4565b60008660205b8551811161211f5785810151925061209e600289612877565b6120d3576040805160208101849052908101849052606001604051602081830303815290604052805190602001209150612100565b60408051602081018590529081018390526060016040516020818303038152906040528051906020012091505b61210b60028961269b565b9750612118602082612683565b9050612085565b509094149695505050505050565b8051600090811a60808110156121465750600092915050565b60b8811080612161575060c08110801590612161575060f881105b1561216f5750600192915050565b60c081101561219c57612184600160b86127f2565b6121919060ff16826127db565b610ec7906001612683565b612184600160f86127f2565b80516000906121b957506000919050565b6000806121c9846020015161212d565b84602001516121d89190612683565b90506000846000015185602001516121f09190612683565b90505b80821015612222576122048261222b565b61220e9083612683565b91508261221a8161285c565b9350506121f3565b50909392505050565b80516000908190811a60808110156122465760019150611e60565b60b881101561226c5761225a6080826127db565b612265906001612683565b9150611e60565b60c08110156122995760b78103600185019450806020036101000a85510460018201810193505050611e60565b60f88110156122ad5761225a60c0826127db565b60019390930151602084900360f7016101000a900490920160f5190192915050565b806122d957505050565b6020811061231157825182526122f0602084612683565b92506122fd602083612683565b915061230a6020826127db565b90506122d9565b80611d8657505050565b60006020828403121561232c578081fd5b8135610ec7816128ef565b600060208284031215612348578081fd5b8151610ec7816128ef565b60008060408385031215612365578081fd5b8235612370816128ef565b946020939093013593505050565b60006020828403121561238f578081fd5b5035919050565b600080604083850312156123a8578182fd5b8235915060208301356123ba816128ef565b809150509250929050565b600080600080600060a086880312156123dc578081fd5b855194506020860151935060408601519250606086015191506080860151612403816128ef565b809150509295509295909350565b600060208284031215612422578081fd5b81356001600160e01b031981168114610ec7578182fd5b60006020828403121561244a578081fd5b813567ffffffffffffffff811115612460578182fd5b8201601f81018413612470578182fd5b803561248361247e8261265b565b61262a565b818152856020838501011115612497578384fd5b81602084016020830137908101602001929092525092915050565b6000602082840312156124c3578081fd5b815167ffffffffffffffff8111156124d9578182fd5b8201601f810184136124e9578182fd5b80516124f761247e8261265b565b81815285602083850101111561250b578384fd5b61251c826020830160208601612815565b95945050505050565b6000815180845261253d816020860160208601612815565b601f01601f19169290920160200192915050565b7f416363657373436f6e74726f6c3a206163636f756e7420000000000000000000815260008351612589816017850160208801612815565b7001034b99036b4b9b9b4b733903937b6329607d1b60179184019182015283516125ba816028840160208801612815565b01602801949350505050565b838152600083516125de816020850160208801612815565b60209201918201929092526040019392505050565b6001600160a01b038316815260406020820181905260009061177790830184612525565b602081526000610ec76020830184612525565b604051601f8201601f1916810167ffffffffffffffff81118282101715612653576126536128d9565b604052919050565b600067ffffffffffffffff821115612675576126756128d9565b50601f01601f191660200190565b60008219821115612696576126966128ad565b500190565b6000826126aa576126aa6128c3565b500490565b600060ff8316806126c2576126c26128c3565b8060ff84160491505092915050565b600181815b8085111561270c5781600019048211156126f2576126f26128ad565b808516156126ff57918102915b93841c93908002906126d6565b509250929050565b6000610ec7838360008261272a5750600161048f565b816127375750600061048f565b816001811461274d576002811461275757612773565b600191505061048f565b60ff841115612768576127686128ad565b50506001821b61048f565b5060208310610133831016604e8410600b8410161715612796575081810a61048f565b6127a083836126d1565b80600019048211156127b4576127b46128ad565b029392505050565b60008160001904831182151516156127d6576127d66128ad565b500290565b6000828210156127ed576127ed6128ad565b500390565b600060ff821660ff84168082101561280c5761280c6128ad565b90039392505050565b60005b83811015612830578181015183820152602001612818565b8381111561283f576000848401525b50505050565b600081612854576128546128ad565b506000190190565b6000600019821415612870576128706128ad565b5060010190565b600082612886576128866128c3565b500690565b600060ff83168061289e5761289e6128c3565b8060ff84160691505092915050565b634e487b7160e01b600052601160045260246000fd5b634e487b7160e01b600052601260045260246000fd5b634e487b7160e01b600052604160045260246000fd5b6001600160a01b03811681146107e457600080fdfea2646970667358221220ee6d7d7fca40cdaef5f619f8e9c3f818f70c429d9c92b20c6214ce9484b12f9c64736f6c63430008040033",
  "devdoc": {
    "details": "This contract is used for initial integration of partner projects and tokens",
    "kind": "dev",
    "methods": {
      "getRoleAdmin(bytes32)": {
        "details": "Returns the admin role that controls `role`. See {grantRole} and {revokeRole}. To change a role's admin, use {_setRoleAdmin}."
      },
      "grantRole(bytes32,address)": {
        "details": "Grants `role` to `account`. If `account` had not been already granted `role`, emits a {RoleGranted} event. Requirements: - the caller must have ``role``'s admin role."
      },
      "hasRole(bytes32,address)": {
        "details": "Returns `true` if `account` has been granted `role`."
      },
      "receiveMessage(bytes)": {
        "details": "This function verifies if the transaction actually happened on child chain",
        "params": {
          "inputData": "RLP encoded data of the reference tx containing following list of fields  0 - headerNumber - Checkpoint header block number containing the reference tx  1 - blockProof - Proof that the block header (in the child chain) is a leaf in the submitted merkle root  2 - blockNumber - Block number containing the reference tx on child chain  3 - blockTime - Reference tx block time  4 - txRoot - Transactions root of block  5 - receiptRoot - Receipts root of block  6 - receipt - Receipt of the reference transaction  7 - receiptProof - Merkle proof of the reference receipt  8 - branchMask - 32 bits denoting the path of receipt in merkle tree  9 - receiptLogIndex - Log Index to read from the receipt"
        }
      },
      "renounceRole(bytes32,address)": {
        "details": "Revokes `role` from the calling account. Roles are often managed via {grantRole} and {revokeRole}: this function's purpose is to provide a mechanism for accounts to lose their privileges if they are compromised (such as when a trusted device is misplaced). If the calling account had been revoked `role`, emits a {RoleRevoked} event. Requirements: - the caller must be `account`."
      },
      "revokeRole(bytes32,address)": {
        "details": "Revokes `role` from `account`. If `account` had been granted `role`, emits a {RoleRevoked} event. Requirements: - the caller must have ``role``'s admin role."
      },
      "supportsInterface(bytes4)": {
        "details": "See {IERC165-supportsInterface}."
      }
    },
    "title": "NFightParent",
    "version": 1
  },
  "userdoc": {
    "kind": "user",
    "methods": {
      "receiveMessage(bytes)": {
        "notice": "receive message from  L2 to L1, validated by proof"
      }
    },
    "notice": "Layer 1 protocol for NFight project and token registration",
    "version": 1
  },
  "storageLayout": {
    "storage": [
      {
        "astId": 9304,
        "contract": "contracts/NFightUpgradeable/NFightParent.sol:NFightParent",
        "label": "registeredContract",
        "offset": 0,
        "slot": "0",
        "type": "t_mapping(t_address,t_bool)"
      },
      {
        "astId": 2240,
        "contract": "contracts/NFightUpgradeable/NFightParent.sol:NFightParent",
        "label": "fxRoot",
        "offset": 0,
        "slot": "1",
        "type": "t_contract(IFxStateSender)2190"
      },
      {
        "astId": 2243,
        "contract": "contracts/NFightUpgradeable/NFightParent.sol:NFightParent",
        "label": "checkpointManager",
        "offset": 0,
        "slot": "2",
        "type": "t_contract(ICheckpointManager)2208"
      },
      {
        "astId": 2245,
        "contract": "contracts/NFightUpgradeable/NFightParent.sol:NFightParent",
        "label": "fxChildTunnel",
        "offset": 0,
        "slot": "3",
        "type": "t_address"
      },
      {
        "astId": 2249,
        "contract": "contracts/NFightUpgradeable/NFightParent.sol:NFightParent",
        "label": "processedExits",
        "offset": 0,
        "slot": "4",
        "type": "t_mapping(t_bytes32,t_bool)"
      },
      {
        "astId": 4063,
        "contract": "contracts/NFightUpgradeable/NFightParent.sol:NFightParent",
        "label": "_roles",
        "offset": 0,
        "slot": "5",
        "type": "t_mapping(t_bytes32,t_struct(RoleData)4058_storage)"
      },
      {
        "astId": 9708,
        "contract": "contracts/NFightUpgradeable/NFightParent.sol:NFightParent",
        "label": "registeredProjects",
        "offset": 0,
        "slot": "6",
        "type": "t_mapping(t_address,t_bool)"
      }
    ],
    "types": {
      "t_address": {
        "encoding": "inplace",
        "label": "address",
        "numberOfBytes": "20"
      },
      "t_bool": {
        "encoding": "inplace",
        "label": "bool",
        "numberOfBytes": "1"
      },
      "t_bytes32": {
        "encoding": "inplace",
        "label": "bytes32",
        "numberOfBytes": "32"
      },
      "t_contract(ICheckpointManager)2208": {
        "encoding": "inplace",
        "label": "contract ICheckpointManager",
        "numberOfBytes": "20"
      },
      "t_contract(IFxStateSender)2190": {
        "encoding": "inplace",
        "label": "contract IFxStateSender",
        "numberOfBytes": "20"
      },
      "t_mapping(t_address,t_bool)": {
        "encoding": "mapping",
        "key": "t_address",
        "label": "mapping(address => bool)",
        "numberOfBytes": "32",
        "value": "t_bool"
      },
      "t_mapping(t_bytes32,t_bool)": {
        "encoding": "mapping",
        "key": "t_bytes32",
        "label": "mapping(bytes32 => bool)",
        "numberOfBytes": "32",
        "value": "t_bool"
      },
      "t_mapping(t_bytes32,t_struct(RoleData)4058_storage)": {
        "encoding": "mapping",
        "key": "t_bytes32",
        "label": "mapping(bytes32 => struct AccessControl.RoleData)",
        "numberOfBytes": "32",
        "value": "t_struct(RoleData)4058_storage"
      },
      "t_struct(RoleData)4058_storage": {
        "encoding": "inplace",
        "label": "struct AccessControl.RoleData",
        "members": [
          {
            "astId": 4055,
            "contract": "contracts/NFightUpgradeable/NFightParent.sol:NFightParent",
            "label": "members",
            "offset": 0,
            "slot": "0",
            "type": "t_mapping(t_address,t_bool)"
          },
          {
            "astId": 4057,
            "contract": "contracts/NFightUpgradeable/NFightParent.sol:NFightParent",
            "label": "adminRole",
            "offset": 0,
            "slot": "1",
            "type": "t_bytes32"
          }
        ],
        "numberOfBytes": "64"
      }
    }
  }
}