{
  "address": "0xf03A60C831c1794D6306956A98689BBe8FD08DcF",
  "abi": [
    {
      "inputs": [
        {
          "internalType": "address",
          "name": "_checkpointManager",
          "type": "address"
        },
        {
          "internalType": "address",
          "name": "_fxRoot",
          "type": "address"
        }
      ],
      "stateMutability": "nonpayable",
      "type": "constructor"
    },
    {
      "anonymous": false,
      "inputs": [
        {
          "indexed": true,
          "internalType": "address",
          "name": "contractAddress",
          "type": "address"
        },
        {
          "indexed": true,
          "internalType": "uint256",
          "name": "chainId",
          "type": "uint256"
        }
      ],
      "name": "ProjectRegistered",
      "type": "event"
    },
    {
      "anonymous": false,
      "inputs": [
        {
          "indexed": true,
          "internalType": "bytes32",
          "name": "role",
          "type": "bytes32"
        },
        {
          "indexed": true,
          "internalType": "bytes32",
          "name": "previousAdminRole",
          "type": "bytes32"
        },
        {
          "indexed": true,
          "internalType": "bytes32",
          "name": "newAdminRole",
          "type": "bytes32"
        }
      ],
      "name": "RoleAdminChanged",
      "type": "event"
    },
    {
      "anonymous": false,
      "inputs": [
        {
          "indexed": true,
          "internalType": "bytes32",
          "name": "role",
          "type": "bytes32"
        },
        {
          "indexed": true,
          "internalType": "address",
          "name": "account",
          "type": "address"
        },
        {
          "indexed": true,
          "internalType": "address",
          "name": "sender",
          "type": "address"
        }
      ],
      "name": "RoleGranted",
      "type": "event"
    },
    {
      "anonymous": false,
      "inputs": [
        {
          "indexed": true,
          "internalType": "bytes32",
          "name": "role",
          "type": "bytes32"
        },
        {
          "indexed": true,
          "internalType": "address",
          "name": "account",
          "type": "address"
        },
        {
          "indexed": true,
          "internalType": "address",
          "name": "sender",
          "type": "address"
        }
      ],
      "name": "RoleRevoked",
      "type": "event"
    },
    {
      "anonymous": false,
      "inputs": [
        {
          "indexed": true,
          "internalType": "address",
          "name": "contractAddress",
          "type": "address"
        },
        {
          "indexed": true,
          "internalType": "uint256",
          "name": "tokenId",
          "type": "uint256"
        },
        {
          "indexed": true,
          "internalType": "address",
          "name": "owner",
          "type": "address"
        }
      ],
      "name": "TokenRegistered",
      "type": "event"
    },
    {
      "inputs": [],
      "name": "ADMIN_ROLE",
      "outputs": [
        {
          "internalType": "bytes32",
          "name": "",
          "type": "bytes32"
        }
      ],
      "stateMutability": "view",
      "type": "function"
    },
    {
      "inputs": [],
      "name": "DEFAULT_ADMIN_ROLE",
      "outputs": [
        {
          "internalType": "bytes32",
          "name": "",
          "type": "bytes32"
        }
      ],
      "stateMutability": "view",
      "type": "function"
    },
    {
      "inputs": [],
      "name": "SEND_MESSAGE_EVENT_SIG",
      "outputs": [
        {
          "internalType": "bytes32",
          "name": "",
          "type": "bytes32"
        }
      ],
      "stateMutability": "view",
      "type": "function"
    },
    {
      "inputs": [],
      "name": "checkpointManager",
      "outputs": [
        {
          "internalType": "contract ICheckpointManager",
          "name": "",
          "type": "address"
        }
      ],
      "stateMutability": "view",
      "type": "function"
    },
    {
      "inputs": [],
      "name": "fxChildTunnel",
      "outputs": [
        {
          "internalType": "address",
          "name": "",
          "type": "address"
        }
      ],
      "stateMutability": "view",
      "type": "function"
    },
    {
      "inputs": [],
      "name": "fxRoot",
      "outputs": [
        {
          "internalType": "contract IFxStateSender",
          "name": "",
          "type": "address"
        }
      ],
      "stateMutability": "view",
      "type": "function"
    },
    {
      "inputs": [
        {
          "internalType": "bytes32",
          "name": "role",
          "type": "bytes32"
        }
      ],
      "name": "getRoleAdmin",
      "outputs": [
        {
          "internalType": "bytes32",
          "name": "",
          "type": "bytes32"
        }
      ],
      "stateMutability": "view",
      "type": "function"
    },
    {
      "inputs": [
        {
          "internalType": "bytes32",
          "name": "role",
          "type": "bytes32"
        },
        {
          "internalType": "address",
          "name": "account",
          "type": "address"
        }
      ],
      "name": "grantRole",
      "outputs": [],
      "stateMutability": "nonpayable",
      "type": "function"
    },
    {
      "inputs": [
        {
          "internalType": "bytes32",
          "name": "role",
          "type": "bytes32"
        },
        {
          "internalType": "address",
          "name": "account",
          "type": "address"
        }
      ],
      "name": "hasRole",
      "outputs": [
        {
          "internalType": "bool",
          "name": "",
          "type": "bool"
        }
      ],
      "stateMutability": "view",
      "type": "function"
    },
    {
      "inputs": [
        {
          "internalType": "address",
          "name": "mainnetContract",
          "type": "address"
        },
        {
          "internalType": "uint256",
          "name": "tokenId",
          "type": "uint256"
        }
      ],
      "name": "jsonDataForToken",
      "outputs": [
        {
          "internalType": "string",
          "name": "",
          "type": "string"
        }
      ],
      "stateMutability": "nonpayable",
      "type": "function"
    },
    {
      "inputs": [
        {
          "internalType": "bytes32",
          "name": "",
          "type": "bytes32"
        }
      ],
      "name": "processedExits",
      "outputs": [
        {
          "internalType": "bool",
          "name": "",
          "type": "bool"
        }
      ],
      "stateMutability": "view",
      "type": "function"
    },
    {
      "inputs": [
        {
          "internalType": "bytes",
          "name": "inputData",
          "type": "bytes"
        }
      ],
      "name": "receiveMessage",
      "outputs": [],
      "stateMutability": "nonpayable",
      "type": "function"
    },
    {
      "inputs": [
        {
          "internalType": "address",
          "name": "contractAddress",
          "type": "address"
        }
      ],
      "name": "registerProject",
      "outputs": [],
      "stateMutability": "payable",
      "type": "function"
    },
    {
      "inputs": [
        {
          "internalType": "address",
          "name": "contractAddress",
          "type": "address"
        },
        {
          "internalType": "uint256",
          "name": "tokenId",
          "type": "uint256"
        }
      ],
      "name": "registerToken",
      "outputs": [],
      "stateMutability": "nonpayable",
      "type": "function"
    },
    {
      "inputs": [
        {
          "internalType": "address",
          "name": "",
          "type": "address"
        }
      ],
      "name": "registeredContract",
      "outputs": [
        {
          "internalType": "bool",
          "name": "",
          "type": "bool"
        }
      ],
      "stateMutability": "view",
      "type": "function"
    },
    {
      "inputs": [
        {
          "internalType": "address",
          "name": "",
          "type": "address"
        }
      ],
      "name": "registeredProjects",
      "outputs": [
        {
          "internalType": "bool",
          "name": "",
          "type": "bool"
        }
      ],
      "stateMutability": "view",
      "type": "function"
    },
    {
      "inputs": [
        {
          "internalType": "bytes32",
          "name": "role",
          "type": "bytes32"
        },
        {
          "internalType": "address",
          "name": "account",
          "type": "address"
        }
      ],
      "name": "renounceRole",
      "outputs": [],
      "stateMutability": "nonpayable",
      "type": "function"
    },
    {
      "inputs": [
        {
          "internalType": "address",
          "name": "_fxChildTunnel",
          "type": "address"
        }
      ],
      "name": "resetFxChildTunnel",
      "outputs": [],
      "stateMutability": "nonpayable",
      "type": "function"
    },
    {
      "inputs": [
        {
          "internalType": "bytes32",
          "name": "role",
          "type": "bytes32"
        },
        {
          "internalType": "address",
          "name": "account",
          "type": "address"
        }
      ],
      "name": "revokeRole",
      "outputs": [],
      "stateMutability": "nonpayable",
      "type": "function"
    },
    {
      "inputs": [
        {
          "internalType": "address",
          "name": "_fxChildTunnel",
          "type": "address"
        }
      ],
      "name": "setFxChildTunnel",
      "outputs": [],
      "stateMutability": "nonpayable",
      "type": "function"
    },
    {
      "inputs": [
        {
          "internalType": "bytes4",
          "name": "interfaceId",
          "type": "bytes4"
        }
      ],
      "name": "supportsInterface",
      "outputs": [
        {
          "internalType": "bool",
          "name": "",
          "type": "bool"
        }
      ],
      "stateMutability": "view",
      "type": "function"
    }
  ],
  "transactionHash": "0x3e68800d61dc521192a9a049177d29d22efd0d22b4a72add8d67da32c4509204",
  "args": [
    "0x2890bA17EfE978480615e330ecB65333b880928e",
    "0x3d1d3E34f7fB6D26245E6640E1c50710eFFf15bA"
  ],
  "solcInputHash": "b51014e7c76b21a18b60d5420ef6380d",
  "bytecode": "0x60806040523480156200001157600080fd5b50604051620029ba380380620029ba83398101604081905262000034916200017a565b600280546001600160a01b038085166001600160a01b0319928316179092556001805492841692909116919091179055818162000073600033620000a9565b6200009f7fa49807205ce4d355092ef5a8a18f56e8913cf4a201fbe287825b095693c2177533620000a9565b50505050620001b2565b620000b58282620000b9565b5050565b60008281526005602090815260408083206001600160a01b038516845290915290205460ff16620000b55760008281526005602090815260408083206001600160a01b03851684529091529020805460ff19166001179055620001193390565b6001600160a01b0316816001600160a01b0316837f2f8788117e7eff1d82e926ec794901d17c78024a50270940304540a733656f0d60405160405180910390a45050565b80516001600160a01b03811681146200017557600080fd5b919050565b600080604083850312156200018e57600080fd5b62000199836200015d565b9150620001a9602084016200015d565b90509250929050565b6127f880620001c26000396000f3fe60806040526004361061012a5760003560e01c806375b238fc116100ab578063a217fddf1161006f578063a217fddf146103b7578063aea4e49e146103cc578063c0857ba0146103ec578063d547741f1461040c578063de9b771f1461042c578063f953cec71461044c57600080fd5b806375b238fc146102e857806377a774001461031c57806391d148541461032f578063972c49281461034f5780639f2440211461038757600080fd5b8063248a9ca3116100f2578063248a9ca3146102185780632f2ff15d1461024857806336568abe146102685780633a0ba7d914610288578063607f2d42146102b857600080fd5b806301ffc9a71461012f57806302ca5994146101645780630e387de61461018657806315ed7ad6146101c8578063213f15ea146101e8575b600080fd5b34801561013b57600080fd5b5061014f61014a3660046121ab565b61046c565b60405190151581526020015b60405180910390f35b34801561017057600080fd5b5061018461017f3660046121ea565b6104a3565b005b34801561019257600080fd5b506101ba7f8c5261668696ce22758910d05bab8f186d6eb247ceac2af2e82c7dc17669b03681565b60405190815260200161015b565b3480156101d457600080fd5b506101846101e3366004612216565b610602565b3480156101f457600080fd5b5061020b6102033660046121ea565b606092915050565b60405161015b919061228f565b34801561022457600080fd5b506101ba6102333660046122a2565b60009081526005602052604090206001015490565b34801561025457600080fd5b506101846102633660046122bb565b610650565b34801561027457600080fd5b506101846102833660046122bb565b61067b565b34801561029457600080fd5b5061014f6102a3366004612216565b60006020819052908152604090205460ff1681565b3480156102c457600080fd5b5061014f6102d33660046122a2565b60046020526000908152604090205460ff1681565b3480156102f457600080fd5b506101ba7fa49807205ce4d355092ef5a8a18f56e8913cf4a201fbe287825b095693c2177581565b61018461032a366004612216565b6106f5565b34801561033b57600080fd5b5061014f61034a3660046122bb565b610843565b34801561035b57600080fd5b5060035461036f906001600160a01b031681565b6040516001600160a01b03909116815260200161015b565b34801561039357600080fd5b5061014f6103a2366004612216565b60066020526000908152604090205460ff1681565b3480156103c357600080fd5b506101ba600081565b3480156103d857600080fd5b506101846103e7366004612216565b61086e565b3480156103f857600080fd5b5060025461036f906001600160a01b031681565b34801561041857600080fd5b506101846104273660046122bb565b6108fc565b34801561043857600080fd5b5060015461036f906001600160a01b031681565b34801561045857600080fd5b5061018461046736600461235a565b610922565b60006001600160e01b03198216637965db0b60e01b148061049d57506301ffc9a760e01b6001600160e01b03198316145b92915050565b6001600160a01b03821660009081526006602052604090205460ff1615156001146104fb5760405162461bcd60e51b815260206004820152600360248201526203530360ec1b60448201526064015b60405180910390fd5b6040516331a9108f60e11b8152600481018290526001600160a01b03831690636352211e9060240160206040518083038186803b15801561053b57600080fd5b505afa92505050801561056b575060408051601f3d908101601f19168201909252610568918101906123da565b60015b610573575050565b604080516001600160a01b0380861660208301526000928201839052606082018590528316608082015260a00160405160208183030381529060405290506105ba8161092d565b816001600160a01b031683856001600160a01b03167f54b3ebe8b0073d73b5c9ded2d9ef5187ff2ac92d1b2114f26c7d6a01d0162d9260405160405180910390a450505b5050565b7fa49807205ce4d355092ef5a8a18f56e8913cf4a201fbe287825b095693c2177561062d8133610998565b50600380546001600160a01b0319166001600160a01b0392909216919091179055565b60008281526005602052604090206001015461066c8133610998565b61067683836109fc565b505050565b6001600160a01b03811633146106eb5760405162461bcd60e51b815260206004820152602f60248201527f416363657373436f6e74726f6c3a2063616e206f6e6c792072656e6f756e636560448201526e103937b632b9903337b91039b2b63360891b60648201526084016104f2565b6105fe8282610a82565b806001600160a01b0316638da5cb5b6040518163ffffffff1660e01b815260040160206040518083038186803b15801561072e57600080fd5b505afa92505050801561075e575060408051601f3d908101601f1916820190925261075b918101906123da565b60015b6107655750565b6001600160a01b03811633146107a75760405162461bcd60e51b81526020600482015260076024820152664150503a34303960c81b60448201526064016104f2565b604080516001600160a01b0384811660208301528316818301526000606082018190526080808301919091528251808303909101815260a09091019091526107ee8161092d565b6001600160a01b038316600081815260066020526040808220805460ff1916600190811790915590519092917ffdf4a8a8dc4667faae73dca5f6e80e7ab228bf1a37f9d91534e24a319de46c3791a350505b50565b60009182526005602090815260408084206001600160a01b0393909316845291905290205460ff1690565b6003546001600160a01b0316156108da5760405162461bcd60e51b815260206004820152602a60248201527f467842617365526f6f7454756e6e656c3a204348494c445f54554e4e454c5f4160448201526913149150511657d4d15560b21b60648201526084016104f2565b600380546001600160a01b0319166001600160a01b0392909216919091179055565b6000828152600560205260409020600101546109188133610998565b6106768383610a82565b600061067682610ae9565b60015460035460405163b472047760e01b81526001600160a01b039283169263b4720477926109639291169085906004016123f7565b600060405180830381600087803b15801561097d57600080fd5b505af1158015610991573d6000803e3d6000fd5b5050505050565b6109a28282610843565b6105fe576109ba816001600160a01b03166014610dcf565b6109c5836020610dcf565b6040516020016109d692919061241b565b60408051601f198184030181529082905262461bcd60e51b82526104f29160040161228f565b610a068282610843565b6105fe5760008281526005602090815260408083206001600160a01b03851684529091529020805460ff19166001179055610a3e3390565b6001600160a01b0316816001600160a01b0316837f2f8788117e7eff1d82e926ec794901d17c78024a50270940304540a733656f0d60405160405180910390a45050565b610a8c8282610843565b156105fe5760008281526005602090815260408083206001600160a01b0385168085529252808320805460ff1916905551339285917ff6391f5c32d9c69d2a47ea670b442974b53935d1edc7fd64eb21e047a839171b9190a45050565b60606000610af683610f72565b90506000610b0382610fd1565b90506000610b1083610ffa565b9050600081610b1e84611023565b610b27866111e1565b604051602001610b3993929190612490565b60408051601f1981840301815291815281516020928301206000818152600490935291205490915060ff1615610bbd5760405162461bcd60e51b8152602060048201526024808201527f4678526f6f7454756e6e656c3a20455849545f414c52454144595f50524f434560448201526314d4d15160e21b60648201526084016104f2565b6000818152600460205260408120805460ff19166001179055610bdf856111fd565b90506000610bec82611347565b9050610bf7816113d7565b6003546001600160a01b03908116911614610c625760405162461bcd60e51b815260206004820152602560248201527f4678526f6f7454756e6e656c3a20494e56414c49445f46585f4348494c445f54604482015264155393915360da1b60648201526084016104f2565b6000610c6d87611400565b9050610c8d610c7d846020015190565b87610c878a61141c565b84611438565b610ce55760405162461bcd60e51b815260206004820152602360248201527f4678526f6f7454756e6e656c3a20494e56414c49445f524543454950545f505260448201526227a7a360e91b60648201526084016104f2565b610d1385610cf2896116ef565b610cfb8a61170b565b84610d058c611727565b610d0e8d611743565b61175f565b506000610d1f83611894565b90507f8c5261668696ce22758910d05bab8f186d6eb247ceac2af2e82c7dc17669b036610d55610d508360006118d0565b611908565b14610da25760405162461bcd60e51b815260206004820152601f60248201527f4678526f6f7454756e6e656c3a20494e56414c49445f5349474e41545552450060448201526064016104f2565b6000610dad84611983565b806020019051810190610dc091906124bd565b9b9a5050505050505050505050565b60606000610dde83600261254a565b610de9906002612569565b67ffffffffffffffff811115610e0157610e016122eb565b6040519080825280601f01601f191660200182016040528015610e2b576020820181803683370190505b509050600360fc1b81600081518110610e4657610e46612581565b60200101906001600160f81b031916908160001a905350600f60fb1b81600181518110610e7557610e75612581565b60200101906001600160f81b031916908160001a9053506000610e9984600261254a565b610ea4906001612569565b90505b6001811115610f1c576f181899199a1a9b1b9c1cb0b131b232b360811b85600f1660108110610ed857610ed8612581565b1a60f81b828281518110610eee57610eee612581565b60200101906001600160f81b031916908160001a90535060049490941c93610f1581612597565b9050610ea7565b508315610f6b5760405162461bcd60e51b815260206004820181905260248201527f537472696e67733a20686578206c656e67746820696e73756666696369656e7460448201526064016104f2565b9392505050565b6040805160208101909152606081526000610fbc610fb78460408051808201825260008082526020918201528151808301909252825182529182019181019190915290565b61199f565b60408051602081019091529081529392505050565b606061049d8260000151600881518110610fed57610fed612581565b6020026020010151611ab5565b600061049d826000015160028151811061101657611016612581565b6020026020010151611908565b6040805160208101909152600081528151606091901561049d5760008061104b600086611b52565b60f81c9050600181148061106257508060ff166003145b1561110a57600185516002611077919061254a565b61108191906125ae565b67ffffffffffffffff811115611099576110996122eb565b6040519080825280601f01601f1916602001820160405280156110c3576020820181803683370190505b50925060006110d3600187611b52565b905080846000815181106110e9576110e9612581565b60200101906001600160f81b031916908160001a905350600192505061116e565b60028551600261111a919061254a565b61112491906125ae565b67ffffffffffffffff81111561113c5761113c6122eb565b6040519080825280601f01601f191660200182016040528015611166576020820181803683370190505b509250600091505b60ff82165b83518110156111d85761119d61118c60ff8516836125ae565b611197906002612569565b87611b52565b8482815181106111af576111af612581565b60200101906001600160f81b031916908160001a905350806111d0816125c5565b915050611173565b50505092915050565b600061049d826000015160098151811061101657611016612581565b61122160405180606001604052806060815260200160608152602001600081525090565b61123b8260000151600681518110610fed57610fed612581565b60208281018290526040805180820182526000808252908301528051808201909152825181529181019082015261127181611bd3565b156112865761127f8161199f565b8252611333565b6020820151805160009061129c906001906125ae565b67ffffffffffffffff8111156112b4576112b46122eb565b6040519080825280601f01601f1916602001820160405280156112de576020820181803683370190505b5090506000808360210191508260200190506112fc82828551611c0c565b60408051808201825260008082526020918201528151808301909252845182528085019082015261132c9061199f565b8652505050505b61133c836111e1565b604083015250919050565b604080516080810182526000918101828152606080830193909352815260208101919091526000611395836000015160038151811061138857611388612581565b602002602001015161199f565b8360400151815181106113aa576113aa612581565b6020026020010151905060405180604001604052808281526020016113ce8361199f565b90529392505050565b600061049d82602001516000815181106113f3576113f3612581565b6020026020010151611c87565b600061049d826000015160058151811061101657611016612581565b606061049d8260000151600781518110610fed57610fed612581565b60008061146c8460408051808201825260008082526020918201528151808301909252825182529182019181019190915290565b905060006114798261199f565b90506060808560008061148b8b611023565b90508051600014156114a75760009750505050505050506116e7565b60005b86518110156116de5781518311156114cd576000985050505050505050506116e7565b6114ef8782815181106114e2576114e2612581565b6020026020010151611ca1565b955085805190602001208414611510576000985050505050505050506116e7565b61152587828151811061138857611388612581565b94508451601114156115fa578151831415611587578c8051906020012061155886601081518110610fed57610fed612581565b805190602001201415611576576001985050505050505050506116e7565b6000985050505050505050506116e7565b600082848151811061159b5761159b612581565b016020015160f81c905060108111156115c057600099505050505050505050506116e7565b6115e5868260ff16815181106115d8576115d8612581565b6020026020010151611d21565b94506115f2600185612569565b9350506116cc565b84516002141561157657600061162661161f87600081518110610fed57610fed612581565b8486611d4f565b83519091506116358286612569565b141561168a578d8051906020012061165987600181518110610fed57610fed612581565b80519060200120141561167857600199505050505050505050506116e7565b600099505050505050505050506116e7565b806116a157600099505050505050505050506116e7565b6116ab8185612569565b93506116c3866001815181106115d8576115d8612581565b94506116cc9050565b806116d6816125c5565b9150506114aa565b50505050505050505b949350505050565b600061049d826000015160038151811061101657611016612581565b600061049d826000015160048151811061101657611016612581565b600061049d826000015160008151811061101657611016612581565b606061049d8260000151600181518110610fed57610fed612581565b6002546040516320a9cea560e11b8152600481018490526000918291829182916001600160a01b03909116906341539d4a9060240160a06040518083038186803b1580156117ac57600080fd5b505afa1580156117c0573d6000803e3d6000fd5b505050506040513d601f19601f820116820180604052508101906117e491906125e0565b509350509250925061183b828b6117fb91906125ae565b6040805160208082018f90528183018e9052606082018d905260808083018d90528351808403909101815260a09092019092528051910120908588611e58565b6118875760405162461bcd60e51b815260206004820152601c60248201527f4678526f6f7454756e6e656c3a20494e56414c49445f4845414445520000000060448201526064016104f2565b9998505050505050505050565b60408051602081019091526060815260405180602001604052806118c8846020015160018151811061138857611388612581565b905292915050565b604080518082019091526000808252602082015282518051839081106118f8576118f8612581565b6020026020010151905092915050565b80516000901580159061191d57508151602110155b61192657600080fd5b60006119358360200151611fbd565b9050600081846000015161194991906125ae565b905060008083866020015161195e9190612569565b905080519150602083101561197a57826020036101000a820491505b50949350505050565b606061049d8260200151600281518110610fed57610fed612581565b60606119aa82611bd3565b6119b357600080fd5b60006119be83612038565b905060008167ffffffffffffffff8111156119db576119db6122eb565b604051908082528060200260200182016040528015611a2057816020015b60408051808201909152600080825260208201528152602001906001900390816119f95790505b5090506000611a328560200151611fbd565b8560200151611a419190612569565b90506000805b84811015611aaa57611a58836120bb565b9150604051806040016040528083815260200184815250848281518110611a8157611a81612581565b6020908102919091010152611a968284612569565b925080611aa2816125c5565b915050611a47565b509195945050505050565b8051606090611ac357600080fd5b6000611ad28360200151611fbd565b90506000818460000151611ae691906125ae565b905060008167ffffffffffffffff811115611b0357611b036122eb565b6040519080825280601f01601f191660200182016040528015611b2d576020820181803683370190505b509050600081602001905061197a848760200151611b4b9190612569565b828561215f565b6000611b5f600284612643565b15611b9957601082611b72600286612657565b81518110611b8257611b82612581565b0160200151611b94919060f81c61266b565b611bc9565b601082611ba7600286612657565b81518110611bb757611bb7612581565b0160200151611bc9919060f81c61268d565b60f81b9392505050565b8051600090611be457506000919050565b6020820151805160001a9060c0821015611c02575060009392505050565b5060019392505050565b80611c1657505050565b60208110611c4e5782518252611c2d602084612569565b9250611c3a602083612569565b9150611c476020826125ae565b9050611c16565b60006001611c5d8360206125ae565b611c6990610100612793565b611c7391906125ae565b935183518516941916939093179091525050565b8051600090601514611c9857600080fd5b61049d82611908565b60606000826000015167ffffffffffffffff811115611cc257611cc26122eb565b6040519080825280601f01601f191660200182016040528015611cec576020820181803683370190505b509050805160001415611cff5792915050565b6000816020019050611d1a846020015182866000015161215f565b5092915050565b8051600090602114611d3257600080fd5b60008083602001516001611d469190612569565b51949350505050565b60008080611d5c86611023565b90506000815167ffffffffffffffff811115611d7a57611d7a6122eb565b6040519080825280601f01601f191660200182016040528015611da4576020820181803683370190505b509050845b8251611db59087612569565b811015611e28576000878281518110611dd057611dd0612581565b01602001516001600160f81b03191690508083611ded89856125ae565b81518110611dfd57611dfd612581565b60200101906001600160f81b031916908160001a905350508080611e20906125c5565b915050611da9565b50808051906020012082805190602001201415611e485781519250611e4d565b600092505b509095945050505050565b600060208251611e689190612643565b15611eac5760405162461bcd60e51b8152602060048201526014602482015273092dcecc2d8d2c840e0e4dedecc40d8cadccee8d60631b60448201526064016104f2565b600060208351611ebc9190612657565b9050611ec9816002612793565b8510611f0f5760405162461bcd60e51b81526020600482015260156024820152744c65616620696e64657820697320746f6f2062696760581b60448201526064016104f2565b60008660205b85518111611faf57858101519250611f2e600289612643565b611f63576040805160208101849052908101849052606001604051602081830303815290604052805190602001209150611f90565b60408051602081018590529081018390526060016040516020818303038152906040528051906020012091505b611f9b600289612657565b9750611fa8602082612569565b9050611f15565b509094149695505050505050565b8051600090811a6080811015611fd65750600092915050565b60b8811080611ff1575060c08110801590611ff1575060f881105b15611fff5750600192915050565b60c081101561202c57612014600160b861279f565b6120219060ff16826125ae565b610f6b906001612569565b612014600160f861279f565b805160009061204957506000919050565b6000806120598460200151611fbd565b84602001516120689190612569565b90506000846000015185602001516120809190612569565b90505b808210156120b257612094826120bb565b61209e9083612569565b9150826120aa816125c5565b935050612083565b50909392505050565b80516000908190811a60808110156120d65760019150611d1a565b60b88110156120fc576120ea6080826125ae565b6120f5906001612569565b9150611d1a565b60c08110156121295760b78103600185019450806020036101000a85510460018201810193505050611d1a565b60f881101561213d576120ea60c0826125ae565b60019390930151602084900360f7016101000a900490920160f5190192915050565b8061216957505050565b602081106121a15782518252612180602084612569565b925061218d602083612569565b915061219a6020826125ae565b9050612169565b80611c4e57505050565b6000602082840312156121bd57600080fd5b81356001600160e01b031981168114610f6b57600080fd5b6001600160a01b038116811461084057600080fd5b600080604083850312156121fd57600080fd5b8235612208816121d5565b946020939093013593505050565b60006020828403121561222857600080fd5b8135610f6b816121d5565b60005b8381101561224e578181015183820152602001612236565b8381111561225d576000848401525b50505050565b6000815180845261227b816020860160208601612233565b601f01601f19169290920160200192915050565b602081526000610f6b6020830184612263565b6000602082840312156122b457600080fd5b5035919050565b600080604083850312156122ce57600080fd5b8235915060208301356122e0816121d5565b809150509250929050565b634e487b7160e01b600052604160045260246000fd5b604051601f8201601f1916810167ffffffffffffffff8111828210171561232a5761232a6122eb565b604052919050565b600067ffffffffffffffff82111561234c5761234c6122eb565b50601f01601f191660200190565b60006020828403121561236c57600080fd5b813567ffffffffffffffff81111561238357600080fd5b8201601f8101841361239457600080fd5b80356123a76123a282612332565b612301565b8181528560208385010111156123bc57600080fd5b81602084016020830137600091810160200191909152949350505050565b6000602082840312156123ec57600080fd5b8151610f6b816121d5565b6001600160a01b03831681526040602082018190526000906116e790830184612263565b7f416363657373436f6e74726f6c3a206163636f756e7420000000000000000000815260008351612453816017850160208801612233565b7001034b99036b4b9b9b4b733903937b6329607d1b6017918401918201528351612484816028840160208801612233565b01602801949350505050565b838152600083516124a8816020850160208801612233565b60209201918201929092526040019392505050565b6000602082840312156124cf57600080fd5b815167ffffffffffffffff8111156124e657600080fd5b8201601f810184136124f757600080fd5b80516125056123a282612332565b81815285602083850101111561251a57600080fd5b61252b826020830160208601612233565b95945050505050565b634e487b7160e01b600052601160045260246000fd5b600081600019048311821515161561256457612564612534565b500290565b6000821982111561257c5761257c612534565b500190565b634e487b7160e01b600052603260045260246000fd5b6000816125a6576125a6612534565b506000190190565b6000828210156125c0576125c0612534565b500390565b60006000198214156125d9576125d9612534565b5060010190565b600080600080600060a086880312156125f857600080fd5b85519450602086015193506040860151925060608601519150608086015161261f816121d5565b809150509295509295909350565b634e487b7160e01b600052601260045260246000fd5b6000826126525761265261262d565b500690565b6000826126665761266661262d565b500490565b600060ff83168061267e5761267e61262d565b8060ff84160691505092915050565b600060ff8316806126a0576126a061262d565b8060ff84160491505092915050565b600181815b808511156126ea5781600019048211156126d0576126d0612534565b808516156126dd57918102915b93841c93908002906126b4565b509250929050565b6000826127015750600161049d565b8161270e5750600061049d565b8160018114612724576002811461272e5761274a565b600191505061049d565b60ff84111561273f5761273f612534565b50506001821b61049d565b5060208310610133831016604e8410600b841016171561276d575081810a61049d565b61277783836126af565b806000190482111561278b5761278b612534565b029392505050565b6000610f6b83836126f2565b600060ff821660ff8416808210156127b9576127b9612534565b9003939250505056fea2646970667358221220fbfd65d22f14f20d72a019234530d2ebf8954eff3da6682476a53726ac10dea564736f6c63430008090033",
  "devdoc": {
    "details": "This contract is used for initial integration of partner projects and tokens",
    "kind": "dev",
    "methods": {
      "getRoleAdmin(bytes32)": {
        "details": "Returns the admin role that controls `role`. See {grantRole} and {revokeRole}. To change a role's admin, use {_setRoleAdmin}."
      },
      "grantRole(bytes32,address)": {
        "details": "Grants `role` to `account`. If `account` had not been already granted `role`, emits a {RoleGranted} event. Requirements: - the caller must have ``role``'s admin role."
      },
      "hasRole(bytes32,address)": {
        "details": "Returns `true` if `account` has been granted `role`."
      },
      "receiveMessage(bytes)": {
        "details": "This function verifies if the transaction actually happened on child chain",
        "params": {
          "inputData": "RLP encoded data of the reference tx containing following list of fields  0 - headerNumber - Checkpoint header block number containing the reference tx  1 - blockProof - Proof that the block header (in the child chain) is a leaf in the submitted merkle root  2 - blockNumber - Block number containing the reference tx on child chain  3 - blockTime - Reference tx block time  4 - txRoot - Transactions root of block  5 - receiptRoot - Receipts root of block  6 - receipt - Receipt of the reference transaction  7 - receiptProof - Merkle proof of the reference receipt  8 - branchMask - 32 bits denoting the path of receipt in merkle tree  9 - receiptLogIndex - Log Index to read from the receipt"
        }
      },
      "renounceRole(bytes32,address)": {
        "details": "Revokes `role` from the calling account. Roles are often managed via {grantRole} and {revokeRole}: this function's purpose is to provide a mechanism for accounts to lose their privileges if they are compromised (such as when a trusted device is misplaced). If the calling account had been revoked `role`, emits a {RoleRevoked} event. Requirements: - the caller must be `account`."
      },
      "revokeRole(bytes32,address)": {
        "details": "Revokes `role` from `account`. If `account` had been granted `role`, emits a {RoleRevoked} event. Requirements: - the caller must have ``role``'s admin role."
      },
      "supportsInterface(bytes4)": {
        "details": "See {IERC165-supportsInterface}."
      }
    },
    "title": "NFightParent",
    "version": 1
  },
  "userdoc": {
    "kind": "user",
    "methods": {
      "receiveMessage(bytes)": {
        "notice": "receive message from  L2 to L1, validated by proof"
      }
    },
    "notice": "Layer 1 protocol for NFight project and token registration",
    "version": 1
  },
  "storageLayout": {
    "storage": [
      {
        "astId": 10434,
        "contract": "contracts/NFightUpgradeable/NFightParent.sol:NFightParent",
        "label": "registeredContract",
        "offset": 0,
        "slot": "0",
        "type": "t_mapping(t_address,t_bool)"
      },
      {
        "astId": 2240,
        "contract": "contracts/NFightUpgradeable/NFightParent.sol:NFightParent",
        "label": "fxRoot",
        "offset": 0,
        "slot": "1",
        "type": "t_contract(IFxStateSender)2190"
      },
      {
        "astId": 2243,
        "contract": "contracts/NFightUpgradeable/NFightParent.sol:NFightParent",
        "label": "checkpointManager",
        "offset": 0,
        "slot": "2",
        "type": "t_contract(ICheckpointManager)2208"
      },
      {
        "astId": 2245,
        "contract": "contracts/NFightUpgradeable/NFightParent.sol:NFightParent",
        "label": "fxChildTunnel",
        "offset": 0,
        "slot": "3",
        "type": "t_address"
      },
      {
        "astId": 2249,
        "contract": "contracts/NFightUpgradeable/NFightParent.sol:NFightParent",
        "label": "processedExits",
        "offset": 0,
        "slot": "4",
        "type": "t_mapping(t_bytes32,t_bool)"
      },
      {
        "astId": 4073,
        "contract": "contracts/NFightUpgradeable/NFightParent.sol:NFightParent",
        "label": "_roles",
        "offset": 0,
        "slot": "5",
        "type": "t_mapping(t_bytes32,t_struct(RoleData)4068_storage)"
      },
      {
        "astId": 10839,
        "contract": "contracts/NFightUpgradeable/NFightParent.sol:NFightParent",
        "label": "registeredProjects",
        "offset": 0,
        "slot": "6",
        "type": "t_mapping(t_address,t_bool)"
      }
    ],
    "types": {
      "t_address": {
        "encoding": "inplace",
        "label": "address",
        "numberOfBytes": "20"
      },
      "t_bool": {
        "encoding": "inplace",
        "label": "bool",
        "numberOfBytes": "1"
      },
      "t_bytes32": {
        "encoding": "inplace",
        "label": "bytes32",
        "numberOfBytes": "32"
      },
      "t_contract(ICheckpointManager)2208": {
        "encoding": "inplace",
        "label": "contract ICheckpointManager",
        "numberOfBytes": "20"
      },
      "t_contract(IFxStateSender)2190": {
        "encoding": "inplace",
        "label": "contract IFxStateSender",
        "numberOfBytes": "20"
      },
      "t_mapping(t_address,t_bool)": {
        "encoding": "mapping",
        "key": "t_address",
        "label": "mapping(address => bool)",
        "numberOfBytes": "32",
        "value": "t_bool"
      },
      "t_mapping(t_bytes32,t_bool)": {
        "encoding": "mapping",
        "key": "t_bytes32",
        "label": "mapping(bytes32 => bool)",
        "numberOfBytes": "32",
        "value": "t_bool"
      },
      "t_mapping(t_bytes32,t_struct(RoleData)4068_storage)": {
        "encoding": "mapping",
        "key": "t_bytes32",
        "label": "mapping(bytes32 => struct AccessControl.RoleData)",
        "numberOfBytes": "32",
        "value": "t_struct(RoleData)4068_storage"
      },
      "t_struct(RoleData)4068_storage": {
        "encoding": "inplace",
        "label": "struct AccessControl.RoleData",
        "members": [
          {
            "astId": 4065,
            "contract": "contracts/NFightUpgradeable/NFightParent.sol:NFightParent",
            "label": "members",
            "offset": 0,
            "slot": "0",
            "type": "t_mapping(t_address,t_bool)"
          },
          {
            "astId": 4067,
            "contract": "contracts/NFightUpgradeable/NFightParent.sol:NFightParent",
            "label": "adminRole",
            "offset": 0,
            "slot": "1",
            "type": "t_bytes32"
          }
        ],
        "numberOfBytes": "64"
      }
    }
  }
}