{
  "address": "0x6122C5987c3ef541f0d7B7D56bBC91f56654a386",
  "abi": [
    {
      "inputs": [
        {
          "internalType": "bytes32",
          "name": "_LINK_KEY_HASH",
          "type": "bytes32"
        },
        {
          "internalType": "address",
          "name": "_LINK_ADDRESS",
          "type": "address"
        },
        {
          "internalType": "address",
          "name": "_LINK_VRF_COORDINATOR_ADDRESS",
          "type": "address"
        },
        {
          "internalType": "address",
          "name": "_WETH_ADDRESS",
          "type": "address"
        }
      ],
      "stateMutability": "nonpayable",
      "type": "constructor"
    },
    {
      "anonymous": false,
      "inputs": [
        {
          "indexed": true,
          "internalType": "address",
          "name": "account",
          "type": "address"
        },
        {
          "indexed": true,
          "internalType": "address",
          "name": "operator",
          "type": "address"
        },
        {
          "indexed": false,
          "internalType": "bool",
          "name": "approved",
          "type": "bool"
        }
      ],
      "name": "ApprovalForAll",
      "type": "event"
    },
    {
      "anonymous": false,
      "inputs": [
        {
          "indexed": true,
          "internalType": "address",
          "name": "previousOwner",
          "type": "address"
        },
        {
          "indexed": true,
          "internalType": "address",
          "name": "newOwner",
          "type": "address"
        }
      ],
      "name": "OwnershipTransferred",
      "type": "event"
    },
    {
      "anonymous": false,
      "inputs": [
        {
          "indexed": true,
          "internalType": "address",
          "name": "user",
          "type": "address"
        },
        {
          "indexed": false,
          "internalType": "uint256",
          "name": "currentRaffle",
          "type": "uint256"
        }
      ],
      "name": "RaffleEntered",
      "type": "event"
    },
    {
      "anonymous": false,
      "inputs": [
        {
          "indexed": true,
          "internalType": "bytes32",
          "name": "role",
          "type": "bytes32"
        },
        {
          "indexed": true,
          "internalType": "bytes32",
          "name": "previousAdminRole",
          "type": "bytes32"
        },
        {
          "indexed": true,
          "internalType": "bytes32",
          "name": "newAdminRole",
          "type": "bytes32"
        }
      ],
      "name": "RoleAdminChanged",
      "type": "event"
    },
    {
      "anonymous": false,
      "inputs": [
        {
          "indexed": true,
          "internalType": "bytes32",
          "name": "role",
          "type": "bytes32"
        },
        {
          "indexed": true,
          "internalType": "address",
          "name": "account",
          "type": "address"
        },
        {
          "indexed": true,
          "internalType": "address",
          "name": "sender",
          "type": "address"
        }
      ],
      "name": "RoleGranted",
      "type": "event"
    },
    {
      "anonymous": false,
      "inputs": [
        {
          "indexed": true,
          "internalType": "bytes32",
          "name": "role",
          "type": "bytes32"
        },
        {
          "indexed": true,
          "internalType": "address",
          "name": "account",
          "type": "address"
        },
        {
          "indexed": true,
          "internalType": "address",
          "name": "sender",
          "type": "address"
        }
      ],
      "name": "RoleRevoked",
      "type": "event"
    },
    {
      "anonymous": false,
      "inputs": [
        {
          "indexed": true,
          "internalType": "address",
          "name": "operator",
          "type": "address"
        },
        {
          "indexed": true,
          "internalType": "address",
          "name": "from",
          "type": "address"
        },
        {
          "indexed": true,
          "internalType": "address",
          "name": "to",
          "type": "address"
        },
        {
          "indexed": false,
          "internalType": "uint256[]",
          "name": "ids",
          "type": "uint256[]"
        },
        {
          "indexed": false,
          "internalType": "uint256[]",
          "name": "values",
          "type": "uint256[]"
        }
      ],
      "name": "TransferBatch",
      "type": "event"
    },
    {
      "anonymous": false,
      "inputs": [
        {
          "indexed": true,
          "internalType": "address",
          "name": "operator",
          "type": "address"
        },
        {
          "indexed": true,
          "internalType": "address",
          "name": "from",
          "type": "address"
        },
        {
          "indexed": true,
          "internalType": "address",
          "name": "to",
          "type": "address"
        },
        {
          "indexed": false,
          "internalType": "uint256",
          "name": "id",
          "type": "uint256"
        },
        {
          "indexed": false,
          "internalType": "uint256",
          "name": "value",
          "type": "uint256"
        }
      ],
      "name": "TransferSingle",
      "type": "event"
    },
    {
      "anonymous": false,
      "inputs": [
        {
          "indexed": false,
          "internalType": "string",
          "name": "value",
          "type": "string"
        },
        {
          "indexed": true,
          "internalType": "uint256",
          "name": "id",
          "type": "uint256"
        }
      ],
      "name": "URI",
      "type": "event"
    },
    {
      "inputs": [],
      "name": "DEFAULT_ADMIN_ROLE",
      "outputs": [
        {
          "internalType": "bytes32",
          "name": "",
          "type": "bytes32"
        }
      ],
      "stateMutability": "view",
      "type": "function"
    },
    {
      "inputs": [],
      "name": "LINK_TOKEN",
      "outputs": [
        {
          "internalType": "contract IERC20",
          "name": "",
          "type": "address"
        }
      ],
      "stateMutability": "view",
      "type": "function"
    },
    {
      "inputs": [],
      "name": "MINTER_ROLE",
      "outputs": [
        {
          "internalType": "bytes32",
          "name": "",
          "type": "bytes32"
        }
      ],
      "stateMutability": "view",
      "type": "function"
    },
    {
      "inputs": [],
      "name": "TRANCHE_LENGTH",
      "outputs": [
        {
          "internalType": "uint256",
          "name": "",
          "type": "uint256"
        }
      ],
      "stateMutability": "view",
      "type": "function"
    },
    {
      "inputs": [],
      "name": "WETH_TOKEN",
      "outputs": [
        {
          "internalType": "contract IERC20",
          "name": "",
          "type": "address"
        }
      ],
      "stateMutability": "view",
      "type": "function"
    },
    {
      "inputs": [
        {
          "internalType": "uint256",
          "name": "newSupply",
          "type": "uint256"
        }
      ],
      "name": "addSupply",
      "outputs": [],
      "stateMutability": "nonpayable",
      "type": "function"
    },
    {
      "inputs": [],
      "name": "allowancesSigner",
      "outputs": [
        {
          "internalType": "address",
          "name": "",
          "type": "address"
        }
      ],
      "stateMutability": "view",
      "type": "function"
    },
    {
      "inputs": [],
      "name": "availableSupply",
      "outputs": [
        {
          "internalType": "uint256",
          "name": "",
          "type": "uint256"
        }
      ],
      "stateMutability": "view",
      "type": "function"
    },
    {
      "inputs": [
        {
          "internalType": "address",
          "name": "account",
          "type": "address"
        },
        {
          "internalType": "uint256",
          "name": "id",
          "type": "uint256"
        }
      ],
      "name": "balanceOf",
      "outputs": [
        {
          "internalType": "uint256",
          "name": "",
          "type": "uint256"
        }
      ],
      "stateMutability": "view",
      "type": "function"
    },
    {
      "inputs": [
        {
          "internalType": "address[]",
          "name": "accounts",
          "type": "address[]"
        },
        {
          "internalType": "uint256[]",
          "name": "ids",
          "type": "uint256[]"
        }
      ],
      "name": "balanceOfBatch",
      "outputs": [
        {
          "internalType": "uint256[]",
          "name": "",
          "type": "uint256[]"
        }
      ],
      "stateMutability": "view",
      "type": "function"
    },
    {
      "inputs": [
        {
          "internalType": "uint256",
          "name": "raffle",
          "type": "uint256"
        }
      ],
      "name": "buildMessages",
      "outputs": [
        {
          "components": [
            {
              "internalType": "uint256",
              "name": "nonce",
              "type": "uint256"
            },
            {
              "internalType": "address",
              "name": "minter",
              "type": "address"
            },
            {
              "internalType": "bytes32",
              "name": "message",
              "type": "bytes32"
            }
          ],
          "internalType": "struct WinnerBelt.Signable[]",
          "name": "signables",
          "type": "tuple[]"
        }
      ],
      "stateMutability": "view",
      "type": "function"
    },
    {
      "inputs": [],
      "name": "clearRaffle",
      "outputs": [],
      "stateMutability": "nonpayable",
      "type": "function"
    },
    {
      "inputs": [
        {
          "internalType": "address",
          "name": "account",
          "type": "address"
        },
        {
          "internalType": "uint256",
          "name": "nonce",
          "type": "uint256"
        }
      ],
      "name": "createMessage",
      "outputs": [
        {
          "internalType": "bytes32",
          "name": "",
          "type": "bytes32"
        }
      ],
      "stateMutability": "pure",
      "type": "function"
    },
    {
      "inputs": [],
      "name": "currentRaffle",
      "outputs": [
        {
          "internalType": "uint256",
          "name": "",
          "type": "uint256"
        }
      ],
      "stateMutability": "view",
      "type": "function"
    },
    {
      "inputs": [
        {
          "internalType": "address[]",
          "name": "platinum",
          "type": "address[]"
        },
        {
          "internalType": "address[]",
          "name": "gold",
          "type": "address[]"
        },
        {
          "internalType": "address[]",
          "name": "silver",
          "type": "address[]"
        }
      ],
      "name": "devMintMultiple",
      "outputs": [],
      "stateMutability": "nonpayable",
      "type": "function"
    },
    {
      "inputs": [
        {
          "internalType": "uint256",
          "name": "tokenId",
          "type": "uint256"
        }
      ],
      "name": "enterRaffle",
      "outputs": [],
      "stateMutability": "nonpayable",
      "type": "function"
    },
    {
      "inputs": [
        {
          "internalType": "bytes32",
          "name": "role",
          "type": "bytes32"
        }
      ],
      "name": "getRoleAdmin",
      "outputs": [
        {
          "internalType": "bytes32",
          "name": "",
          "type": "bytes32"
        }
      ],
      "stateMutability": "view",
      "type": "function"
    },
    {
      "inputs": [
        {
          "internalType": "uint256",
          "name": "entryIndex",
          "type": "uint256"
        }
      ],
      "name": "getTokenId",
      "outputs": [
        {
          "internalType": "uint256",
          "name": "",
          "type": "uint256"
        }
      ],
      "stateMutability": "view",
      "type": "function"
    },
    {
      "inputs": [
        {
          "internalType": "bytes32",
          "name": "role",
          "type": "bytes32"
        },
        {
          "internalType": "address",
          "name": "account",
          "type": "address"
        }
      ],
      "name": "grantRole",
      "outputs": [],
      "stateMutability": "nonpayable",
      "type": "function"
    },
    {
      "inputs": [
        {
          "internalType": "bytes32",
          "name": "role",
          "type": "bytes32"
        },
        {
          "internalType": "address",
          "name": "account",
          "type": "address"
        }
      ],
      "name": "hasRole",
      "outputs": [
        {
          "internalType": "bool",
          "name": "",
          "type": "bool"
        }
      ],
      "stateMutability": "view",
      "type": "function"
    },
    {
      "inputs": [
        {
          "internalType": "address",
          "name": "account",
          "type": "address"
        },
        {
          "internalType": "address",
          "name": "operator",
          "type": "address"
        }
      ],
      "name": "isApprovedForAll",
      "outputs": [
        {
          "internalType": "bool",
          "name": "",
          "type": "bool"
        }
      ],
      "stateMutability": "view",
      "type": "function"
    },
    {
      "inputs": [
        {
          "internalType": "address",
          "name": "to",
          "type": "address"
        },
        {
          "internalType": "uint256",
          "name": "tokenId",
          "type": "uint256"
        }
      ],
      "name": "mint",
      "outputs": [],
      "stateMutability": "payable",
      "type": "function"
    },
    {
      "inputs": [
        {
          "internalType": "uint256",
          "name": "timestamp",
          "type": "uint256"
        }
      ],
      "name": "openRaffle",
      "outputs": [],
      "stateMutability": "nonpayable",
      "type": "function"
    },
    {
      "inputs": [],
      "name": "owner",
      "outputs": [
        {
          "internalType": "address",
          "name": "",
          "type": "address"
        }
      ],
      "stateMutability": "view",
      "type": "function"
    },
    {
      "inputs": [],
      "name": "raffleEndTime",
      "outputs": [
        {
          "internalType": "uint256",
          "name": "",
          "type": "uint256"
        }
      ],
      "stateMutability": "view",
      "type": "function"
    },
    {
      "inputs": [],
      "name": "raffleStartTime",
      "outputs": [
        {
          "internalType": "uint256",
          "name": "",
          "type": "uint256"
        }
      ],
      "stateMutability": "view",
      "type": "function"
    },
    {
      "inputs": [
        {
          "internalType": "bytes32",
          "name": "requestId",
          "type": "bytes32"
        },
        {
          "internalType": "uint256",
          "name": "randomness",
          "type": "uint256"
        }
      ],
      "name": "rawFulfillRandomness",
      "outputs": [],
      "stateMutability": "nonpayable",
      "type": "function"
    },
    {
      "inputs": [],
      "name": "renounceOwnership",
      "outputs": [],
      "stateMutability": "nonpayable",
      "type": "function"
    },
    {
      "inputs": [
        {
          "internalType": "bytes32",
          "name": "role",
          "type": "bytes32"
        },
        {
          "internalType": "address",
          "name": "account",
          "type": "address"
        }
      ],
      "name": "renounceRole",
      "outputs": [],
      "stateMutability": "nonpayable",
      "type": "function"
    },
    {
      "inputs": [
        {
          "internalType": "bytes32",
          "name": "role",
          "type": "bytes32"
        },
        {
          "internalType": "address",
          "name": "account",
          "type": "address"
        }
      ],
      "name": "revokeRole",
      "outputs": [],
      "stateMutability": "nonpayable",
      "type": "function"
    },
    {
      "inputs": [
        {
          "internalType": "address",
          "name": "from",
          "type": "address"
        },
        {
          "internalType": "address",
          "name": "to",
          "type": "address"
        },
        {
          "internalType": "uint256[]",
          "name": "ids",
          "type": "uint256[]"
        },
        {
          "internalType": "uint256[]",
          "name": "amounts",
          "type": "uint256[]"
        },
        {
          "internalType": "bytes",
          "name": "data",
          "type": "bytes"
        }
      ],
      "name": "safeBatchTransferFrom",
      "outputs": [],
      "stateMutability": "nonpayable",
      "type": "function"
    },
    {
      "inputs": [
        {
          "internalType": "address",
          "name": "from",
          "type": "address"
        },
        {
          "internalType": "address",
          "name": "to",
          "type": "address"
        },
        {
          "internalType": "uint256",
          "name": "id",
          "type": "uint256"
        },
        {
          "internalType": "uint256",
          "name": "amount",
          "type": "uint256"
        },
        {
          "internalType": "bytes",
          "name": "data",
          "type": "bytes"
        }
      ],
      "name": "safeTransferFrom",
      "outputs": [],
      "stateMutability": "nonpayable",
      "type": "function"
    },
    {
      "inputs": [
        {
          "internalType": "address",
          "name": "operator",
          "type": "address"
        },
        {
          "internalType": "bool",
          "name": "approved",
          "type": "bool"
        }
      ],
      "name": "setApprovalForAll",
      "outputs": [],
      "stateMutability": "nonpayable",
      "type": "function"
    },
    {
      "inputs": [],
      "name": "setClearingEntropy",
      "outputs": [],
      "stateMutability": "nonpayable",
      "type": "function"
    },
    {
      "inputs": [
        {
          "internalType": "bytes4",
          "name": "interfaceId",
          "type": "bytes4"
        }
      ],
      "name": "supportsInterface",
      "outputs": [
        {
          "internalType": "bool",
          "name": "",
          "type": "bool"
        }
      ],
      "stateMutability": "view",
      "type": "function"
    },
    {
      "inputs": [
        {
          "internalType": "uint256",
          "name": "",
          "type": "uint256"
        }
      ],
      "name": "trancheEntropy",
      "outputs": [
        {
          "internalType": "uint256",
          "name": "",
          "type": "uint256"
        }
      ],
      "stateMutability": "view",
      "type": "function"
    },
    {
      "inputs": [
        {
          "internalType": "uint256",
          "name": "",
          "type": "uint256"
        }
      ],
      "name": "trancheOffset",
      "outputs": [
        {
          "internalType": "uint256",
          "name": "",
          "type": "uint256"
        }
      ],
      "stateMutability": "view",
      "type": "function"
    },
    {
      "inputs": [
        {
          "internalType": "uint256",
          "name": "",
          "type": "uint256"
        },
        {
          "internalType": "uint256",
          "name": "",
          "type": "uint256"
        }
      ],
      "name": "trancheRaffleEntries",
      "outputs": [
        {
          "internalType": "address",
          "name": "",
          "type": "address"
        }
      ],
      "stateMutability": "view",
      "type": "function"
    },
    {
      "inputs": [
        {
          "internalType": "uint256",
          "name": "",
          "type": "uint256"
        }
      ],
      "name": "trancheShuffled",
      "outputs": [
        {
          "internalType": "bool",
          "name": "",
          "type": "bool"
        }
      ],
      "stateMutability": "view",
      "type": "function"
    },
    {
      "inputs": [
        {
          "internalType": "address",
          "name": "newOwner",
          "type": "address"
        }
      ],
      "name": "transferOwnership",
      "outputs": [],
      "stateMutability": "nonpayable",
      "type": "function"
    },
    {
      "inputs": [
        {
          "internalType": "uint256",
          "name": "",
          "type": "uint256"
        }
      ],
      "name": "uri",
      "outputs": [
        {
          "internalType": "string",
          "name": "",
          "type": "string"
        }
      ],
      "stateMutability": "view",
      "type": "function"
    },
    {
      "inputs": [
        {
          "internalType": "bytes32",
          "name": "",
          "type": "bytes32"
        }
      ],
      "name": "usedAllowances",
      "outputs": [
        {
          "internalType": "bool",
          "name": "",
          "type": "bool"
        }
      ],
      "stateMutability": "view",
      "type": "function"
    },
    {
      "inputs": [
        {
          "internalType": "address",
          "name": "account",
          "type": "address"
        },
        {
          "internalType": "uint256",
          "name": "nonce",
          "type": "uint256"
        },
        {
          "internalType": "bytes",
          "name": "signature",
          "type": "bytes"
        }
      ],
      "name": "validateSignature",
      "outputs": [
        {
          "internalType": "bytes32",
          "name": "",
          "type": "bytes32"
        }
      ],
      "stateMutability": "view",
      "type": "function"
    },
    {
      "inputs": [
        {
          "internalType": "contract IERC20",
          "name": "token",
          "type": "address"
        }
      ],
      "name": "withdrawErc20",
      "outputs": [],
      "stateMutability": "nonpayable",
      "type": "function"
    }
  ],
  "transactionHash": "0xbeb796abd8c6adef85d5b64dae81975cfd2cf96e883565b6d542d5f38f58906a",
  "args": [
    "0x6e75b569a01ef56d18cab6a8e71e6600d6ce853834d4a5748b720d06f878b3a4",
    "0x326C977E6efc84E512bB9C30f76E30c160eD06FB",
    "0x8C7382F9D8f56b33781fE506E897a4F1e2d17255",
    "0x9c3C9283D3e44854697Cd22D3Faa240Cfb032889"
  ],
  "solcInputHash": "b8084b2677d50c41c225cd329e32aebd",
  "bytecode": "0x6101006040523480156200001257600080fd5b5060405162003c2638038062003c268339810160408190526200003591620002e7565b81836040518060600160405280603f815260200162003be7603f91396200005c816200010c565b50620000683362000125565b6001600160a01b0391821660a05216608052620000a67f9f2df0fed2c77648de5860a4cc508cd0818c85b8b8a1ab4ceeef8d981c8956a63362000177565b6001600160a01b0392831660c052600880546001600160a01b03191691909316179091555060e052655af3107a400060095560016000819052600d6020527ffd54ff1ed53f34a900b24c5ba64f85761163b5d82d98a47b9bd80e45466993c55562000378565b80516200012190600290602084019062000224565b5050565b600380546001600160a01b038381166001600160a01b0319831681179093556040519116919082907f8be0079c531659141344cd1fd0a4f28419497f9722a3daafe3b4186f6b6457e090600090a35050565b60008281526004602090815260408083206001600160a01b038516845290915290205462000121908390839060ff16620001215760008281526004602090815260408083206001600160a01b03851684529091529020805460ff19166001179055620001e03390565b6001600160a01b0316816001600160a01b0316837f2f8788117e7eff1d82e926ec794901d17c78024a50270940304540a733656f0d60405160405180910390a45050565b82805462000232906200033b565b90600052602060002090601f016020900481019282620002565760008555620002a1565b82601f106200027157805160ff1916838001178555620002a1565b82800160010185558215620002a1579182015b82811115620002a157825182559160200191906001019062000284565b50620002af929150620002b3565b5090565b5b80821115620002af5760008155600101620002b4565b80516001600160a01b0381168114620002e257600080fd5b919050565b60008060008060808587031215620002fe57600080fd5b845193506200031060208601620002ca565b92506200032060408601620002ca565b91506200033060608601620002ca565b905092959194509250565b600181811c908216806200035057607f821691505b602082108114156200037257634e487b7160e01b600052602260045260246000fd5b50919050565b60805160a05160c05160e051613827620003c060003960006118ca0152600081816107e301526117b30152600081816110e7015261236b0152600061233c01526138276000f3fe6080604052600436106102665760003560e01c80637ecc2b5611610144578063d5391393116100b6578063ed2695c11161007a578063ed2695c1146107b1578063eedac3a6146107d1578063f242432a14610805578063f2fde38b14610825578063f35eee8d14610845578063feff19991461085a57600080fd5b8063d5391393146106de578063d547741f14610712578063ded275d114610732578063e7e8665c14610752578063e985e9c51461076857600080fd5b806394985ddd1161010857806394985ddd1461063e578063a217fddf1461065e578063a22cb46514610673578063a8527cbe14610693578063ae927aac146106a9578063c7e42b1b146106be57600080fd5b80637ecc2b56146105ac5780638838b5c3146105c2578063890621da146105e05780638da5cb5b1461060057806391d148541461061e57600080fd5b806336568abe116101dd57806340c10f19116101a157806340c10f19146104cd5780634e1273f4146104e05780635e94f85b1461050d5780636ce0eaf31461053a578063715018a61461056757806379783ddf1461057c57600080fd5b806336568abe1461042a5780633704d10e1461044a57806337d277d4146104775780633be539ee1461049757806340753a76146104ad57600080fd5b806318a32e701161022f57806318a32e7014610353578063195e870814610368578063248a9ca3146103985780632e519f90146103c85780632eb2c2d6146103ea5780632f2ff15d1461040a57600080fd5b8062fdd58e1461026b57806301ffc9a71461029e5780630312c0f5146102ce5780630e89341c1461030657806314ff5ea314610333575b600080fd5b34801561027757600080fd5b5061028b610286366004612c9b565b61087a565b6040519081526020015b60405180910390f35b3480156102aa57600080fd5b506102be6102b9366004612cdd565b610911565b6040519015158152602001610295565b3480156102da57600080fd5b506102ee6102e9366004612cfa565b610922565b6040516001600160a01b039091168152602001610295565b34801561031257600080fd5b50610326610321366004612d1c565b61095a565b6040516102959190612d91565b34801561033f57600080fd5b5061028b61034e366004612d1c565b6109ee565b34801561035f57600080fd5b5061028b610a55565b34801561037457600080fd5b506102be610383366004612d1c565b60066020526000908152604090205460ff1681565b3480156103a457600080fd5b5061028b6103b3366004612d1c565b60009081526004602052604090206001015490565b3480156103d457600080fd5b506103e86103e3366004612d1c565b610a79565b005b3480156103f657600080fd5b506103e8610405366004612eed565b610b41565b34801561041657600080fd5b506103e8610425366004612f9a565b610bd8565b34801561043657600080fd5b506103e8610445366004612f9a565b610c03565b34801561045657600080fd5b5061046a610465366004612d1c565b610c81565b6040516102959190612fca565b34801561048357600080fd5b506008546102ee906001600160a01b031681565b3480156104a357600080fd5b5061028b600c5481565b3480156104b957600080fd5b506103e86104c8366004612d1c565b610e48565b6103e86104db366004612c9b565b610e8c565b3480156104ec57600080fd5b506105006104fb36600461302c565b610f2b565b6040516102959190613133565b34801561051957600080fd5b5061028b610528366004612d1c565b60106020526000908152604090205481565b34801561054657600080fd5b5061028b610555366004612d1c565b600d6020526000908152604090205481565b34801561057357600080fd5b506103e8611054565b34801561058857600080fd5b506102be610597366004612d1c565b600f6020526000908152604090205460ff1681565b3480156105b857600080fd5b5061028b600b5481565b3480156105ce57600080fd5b506007546001600160a01b03166102ee565b3480156105ec57600080fd5b5061028b6105fb366004613146565b61108a565b34801561060c57600080fd5b506003546001600160a01b03166102ee565b34801561062a57600080fd5b506102be610639366004612f9a565b6110b1565b34801561064a57600080fd5b506103e8610659366004612cfa565b6110dc565b34801561066a57600080fd5b5061028b600081565b34801561067f57600080fd5b506103e861068e3660046131ac565b61115e565b34801561069f57600080fd5b5061028b600a5481565b3480156106b557600080fd5b506103e8611169565b3480156106ca57600080fd5b506103e86106d93660046131da565b61135e565b3480156106ea57600080fd5b5061028b7f9f2df0fed2c77648de5860a4cc508cd0818c85b8b8a1ab4ceeef8d981c8956a681565b34801561071e57600080fd5b506103e861072d366004612f9a565b6114ca565b34801561073e57600080fd5b506103e861074d366004612d1c565b6114f0565b34801561075e57600080fd5b5061028b61025881565b34801561077457600080fd5b506102be6107833660046131f7565b6001600160a01b03918216600090815260016020908152604080832093909416825291909152205460ff1690565b3480156107bd57600080fd5b506103e86107cc366004613269565b61156d565b3480156107dd57600080fd5b506102ee7f000000000000000000000000000000000000000000000000000000000000000081565b34801561081157600080fd5b506103e8610820366004613302565b61167c565b34801561083157600080fd5b506103e86108403660046131da565b611703565b34801561085157600080fd5b506103e861179b565b34801561086657600080fd5b5061028b610875366004612c9b565b61190c565b60006001600160a01b0383166108eb5760405162461bcd60e51b815260206004820152602b60248201527f455243313135353a2062616c616e636520717565727920666f7220746865207a60448201526a65726f206164647265737360a81b60648201526084015b60405180910390fd5b506000908152602081815260408083206001600160a01b03949094168352929052205490565b600061091c8261194a565b92915050565b600e602052816000526040600020818154811061093e57600080fd5b6000918252602090912001546001600160a01b03169150829050565b6060600280546109699061336a565b80601f01602080910402602001604051908101604052809291908181526020018280546109959061336a565b80156109e25780601f106109b7576101008083540402835291602001916109e2565b820191906000526020600020905b8154815290600101906020018083116109c557829003601f168201915b50505050509050919050565b600a546000908152600d60205260408120548210610a425760405162461bcd60e51b8152602060048201526011602482015270115b9d1c9e481b9bdd0818db19585c9959607a1b60448201526064016108e2565b5060009081526011602052604090205490565b6000610258600a54610a6791906133bb565b600c54610a7491906133da565b905090565b6000600a5411610abf5760405162461bcd60e51b8152602060048201526011602482015270526166666c65206e6f742061637469766560781b60448201526064016108e2565b610acb3382600161196f565b600a80546000908152600e602090815260408083208054600181018255908452919092200180546001600160a01b03191633908117909155915490517fff4d34328021c85af2588171c713c19cada0a8acdc20dc117479fcd07865e62691610b369190815260200190565b60405180910390a250565b6001600160a01b038516331480610b5d5750610b5d8533610783565b610bc45760405162461bcd60e51b815260206004820152603260248201527f455243313135353a207472616e736665722063616c6c6572206973206e6f74206044820152711bdddb995c881b9bdc88185c1c1c9bdd995960721b60648201526084016108e2565b610bd18585858585611ae9565b5050505050565b600082815260046020526040902060010154610bf48133611cc6565b610bfe8383611d2a565b505050565b6001600160a01b0381163314610c735760405162461bcd60e51b815260206004820152602f60248201527f416363657373436f6e74726f6c3a2063616e206f6e6c792072656e6f756e636560448201526e103937b632b9903337b91039b2b63360891b60648201526084016108e2565b610c7d8282611db0565b5050565b6000818152600f602052604090205460609060ff16610ce25760405162461bcd60e51b815260206004820152601b60248201527f526166666c6520686173206e6f74206265656e20636c6561726564000000000060448201526064016108e2565b6000828152600d6020908152604080832054600e90925290912054806001600160401b03811115610d1557610d15612da4565b604051908082528060200260200182016040528015610d6057816020015b6040805160608101825260008082526020808301829052928201528252600019909201910181610d335790505b50925060005b81811015610e40576000858152600e60205260408120805483908110610d8e57610d8e6133f2565b600091825260208220015460408051606081019091526001600160a01b039091169250908190601190610dc188876133da565b8152602001908152602001600020548152602001826001600160a01b03168152602001610e0c83601160008988610df891906133da565b81526020019081526020016000205461190c565b815250858381518110610e2157610e216133f2565b6020026020010181905250508080610e3890613408565b915050610d66565b505050919050565b6003546001600160a01b03163314610e725760405162461bcd60e51b81526004016108e290613423565b80600b6000828254610e8491906133da565b909155505050565b7f9f2df0fed2c77648de5860a4cc508cd0818c85b8b8a1ab4ceeef8d981c8956a6610eb78133611cc6565b60038210610ef95760405162461bcd60e51b815260206004820152600f60248201526e125b9d985b1a59081d1bdad95b9259608a1b60448201526064016108e2565b600b60008154610f0890613408565b91905081905550610bfe8383600160405180602001604052806000815250611e17565b60608151835114610f905760405162461bcd60e51b815260206004820152602960248201527f455243313135353a206163636f756e747320616e6420696473206c656e677468604482015268040dad2e6dac2e8c6d60bb1b60648201526084016108e2565b600083516001600160401b03811115610fab57610fab612da4565b604051908082528060200260200182016040528015610fd4578160200160208202803683370190505b50905060005b845181101561104c5761101f858281518110610ff857610ff86133f2565b6020026020010151858381518110611012576110126133f2565b602002602001015161087a565b828281518110611031576110316133f2565b602090810291909101015261104581613408565b9050610fda565b509392505050565b6003546001600160a01b0316331461107e5760405162461bcd60e51b81526004016108e290613423565b6110886000611f21565b565b60006110a98484846110a46007546001600160a01b031690565b611f73565b949350505050565b60009182526004602090815260408084206001600160a01b0393909316845291905290205460ff1690565b336001600160a01b037f000000000000000000000000000000000000000000000000000000000000000016146111545760405162461bcd60e51b815260206004820152601f60248201527f4f6e6c7920565246436f6f7264696e61746f722063616e2066756c66696c6c0060448201526064016108e2565b610c7d8282612091565b610c7d338383612121565b60006001600a5461117a9190613458565b6000818152601060205260409020549091506111d85760405162461bcd60e51b815260206004820152601a60248201527f4e6f20656e74726f707920746f20636c65617220726166666c6500000000000060448201526064016108e2565b6000818152600f602052604090205460ff16156112375760405162461bcd60e51b815260206004820152601f60248201527f526166666c652068617320616c7265616479206265656e20636c65617265640060448201526064016108e2565b6000818152600e602090815260408083208054600d90935290832054909261125f82846133da565b600086815260106020526040902054909150825b828110156112fa57600081600b5461128b9190613458565b611295908461346f565b61129f90836133da565b600081815260116020526040812054919250906112bc57816112cc565b6000828152601160205260409020545b600083815260116020526040808220869055858252902081905590506112f183613408565b92505050611273565b506000868152600f60209081526040808320805460ff19166001179055600d90915290205461132a9085906133da565b600a546000908152600d6020526040812091909155600b8054869290611351908490613458565b9091555050505050505050565b6003546001600160a01b031633146113885760405162461bcd60e51b81526004016108e290613423565b6040516370a0823160e01b81523060048201526001600160a01b0382169063a9059cbb90339083906370a0823190602401602060405180830381600087803b1580156113d357600080fd5b505af11580156113e7573d6000803e3d6000fd5b505050506040513d601f19601f8201168201806040525081019061140b9190613491565b6040516001600160e01b031960e085901b1681526001600160a01b0390921660048301526024820152604401602060405180830381600087803b15801561145157600080fd5b505af1158015611465573d6000803e3d6000fd5b505050506040513d601f19601f8201168201806040525081019061148991906134aa565b6114c75760405162461bcd60e51b815260206004820152600f60248201526e151c985b9cd9995c8819985a5b1959608a1b60448201526064016108e2565b50565b6000828152600460205260409020600101546114e68133611cc6565b610bfe8383611db0565b6003546001600160a01b0316331461151a5760405162461bcd60e51b81526004016108e290613423565b600a54156115635760405162461bcd60e51b8152602060048201526016602482015275149859999b1948185b1c9958591e481cdd185c9d195960521b60448201526064016108e2565b600c556001600a55565b6003546001600160a01b031633146115975760405162461bcd60e51b81526004016108e290613423565b84838260006115af846115aa8585612202565b612202565b905060005b8181101561166f57848110156115f5576115f58b8b838181106115d9576115d96133f2565b90506020020160208101906115ee91906131da565b6000610e8c565b8381101561162e5761162e898983818110611612576116126133f2565b905060200201602081019061162791906131da565b6001610e8c565b828110156116675761166787878381811061164b5761164b6133f2565b905060200201602081019061166091906131da565b6002610e8c565b6001016115b4565b5050505050505050505050565b6001600160a01b03851633148061169857506116988533610783565b6116f65760405162461bcd60e51b815260206004820152602960248201527f455243313135353a2063616c6c6572206973206e6f74206f776e6572206e6f7260448201526808185c1c1c9bdd995960ba1b60648201526084016108e2565b610bd1858585858561221b565b6003546001600160a01b0316331461172d5760405162461bcd60e51b81526004016108e290613423565b6001600160a01b0381166117925760405162461bcd60e51b815260206004820152602660248201527f4f776e61626c653a206e6577206f776e657220697320746865207a65726f206160448201526564647265737360d01b60648201526084016108e2565b6114c781611f21565b6009546040516370a0823160e01b81523060048201527f00000000000000000000000000000000000000000000000000000000000000006001600160a01b0316906370a0823190602401602060405180830381600087803b1580156117ff57600080fd5b505af1158015611813573d6000803e3d6000fd5b505050506040513d601f19601f820116820180604052508101906118379190613491565b10156118795760405162461bcd60e51b8152602060048201526011602482015270496e73756666696369656e74204c494e4b60781b60448201526064016108e2565b611881610a55565b42116118c55760405162461bcd60e51b8152602060048201526013602482015272526166666c65207374696c6c2061637469766560681b60448201526064016108e2565b6118f17f0000000000000000000000000000000000000000000000000000000000000000600954612338565b506001600a600082825461190591906133da565b9091555050565b604080516001600160a01b03841660208201529081018290526000906060015b60405160208183030381529060405280519060200120905092915050565b60006001600160e01b03198216637965db0b60e01b148061091c575061091c8261249c565b6001600160a01b0383166119d15760405162461bcd60e51b815260206004820152602360248201527f455243313135353a206275726e2066726f6d20746865207a65726f206164647260448201526265737360e81b60648201526084016108e2565b33611a01818560006119e2876124ec565b6119eb876124ec565b5050604080516020810190915260009052505050565b6000838152602081815260408083206001600160a01b038816845290915290205482811015611a7e5760405162461bcd60e51b8152602060048201526024808201527f455243313135353a206275726e20616d6f756e7420657863656564732062616c604482015263616e636560e01b60648201526084016108e2565b6000848152602081815260408083206001600160a01b03898116808652918452828520888703905582518981529384018890529092908616917fc3d58168c5ae7397731d063d5bbf3d657854427343f4c083240f7aacaa2d0f62910160405180910390a45050505050565b8151835114611b4b5760405162461bcd60e51b815260206004820152602860248201527f455243313135353a2069647320616e6420616d6f756e7473206c656e677468206044820152670dad2e6dac2e8c6d60c31b60648201526084016108e2565b6001600160a01b038416611b715760405162461bcd60e51b81526004016108e2906134c7565b3360005b8451811015611c58576000858281518110611b9257611b926133f2565b602002602001015190506000858381518110611bb057611bb06133f2565b602090810291909101810151600084815280835260408082206001600160a01b038e168352909352919091205490915081811015611c005760405162461bcd60e51b81526004016108e29061350c565b6000838152602081815260408083206001600160a01b038e8116855292528083208585039055908b16825281208054849290611c3d9084906133da565b9250508190555050505080611c5190613408565b9050611b75565b50846001600160a01b0316866001600160a01b0316826001600160a01b03167f4a39dc06d4c0dbc64b70af90fd698a233a518aa5d07e595d983b8c0526c8f7fb8787604051611ca8929190613556565b60405180910390a4611cbe818787878787612537565b505050505050565b611cd082826110b1565b610c7d57611ce8816001600160a01b031660146126a2565b611cf38360206126a2565b604051602001611d0492919061357b565b60408051601f198184030181529082905262461bcd60e51b82526108e291600401612d91565b611d3482826110b1565b610c7d5760008281526004602090815260408083206001600160a01b03851684529091529020805460ff19166001179055611d6c3390565b6001600160a01b0316816001600160a01b0316837f2f8788117e7eff1d82e926ec794901d17c78024a50270940304540a733656f0d60405160405180910390a45050565b611dba82826110b1565b15610c7d5760008281526004602090815260408083206001600160a01b0385168085529252808320805460ff1916905551339285917ff6391f5c32d9c69d2a47ea670b442974b53935d1edc7fd64eb21e047a839171b9190a45050565b6001600160a01b038416611e775760405162461bcd60e51b815260206004820152602160248201527f455243313135353a206d696e7420746f20746865207a65726f206164647265736044820152607360f81b60648201526084016108e2565b33611e9181600087611e88886124ec565b610bd1886124ec565b6000848152602081815260408083206001600160a01b038916845290915281208054859290611ec19084906133da565b909155505060408051858152602081018590526001600160a01b0380881692600092918516917fc3d58168c5ae7397731d063d5bbf3d657854427343f4c083240f7aacaa2d0f62910160405180910390a4610bd18160008787878761283d565b600380546001600160a01b038381166001600160a01b0319831681179093556040519116919082907f8be0079c531659141344cd1fd0a4f28419497f9722a3daafe3b4186f6b6457e090600090a35050565b600080611fd6611f83878761190c565b6040517f19457468657265756d205369676e6564204d6573736167653a0a3332000000006020820152603c8101829052600090605c01604051602081830303815290604052805190602001209050919050565b90506001600160a01b038316611fec8286612907565b6001600160a01b0316146120385760405162461bcd60e51b815260206004820152601360248201527221494e56414c49445f5349474e41545552452160681b60448201526064016108e2565b60008181526006602052604090205460ff16156120885760405162461bcd60e51b815260206004820152600e60248201526d21414c52454144595f555345442160901b60448201526064016108e2565b95945050505050565b601060006001600a546120a49190613458565b8152602001908152602001600020546000146120f85760405162461bcd60e51b8152602060048201526013602482015272115b9d1c9bdc1e48185b1c9958591e481cd95d606a1b60448201526064016108e2565b80601060006001600a5461210c9190613458565b81526020810191909152604001600020555050565b816001600160a01b0316836001600160a01b031614156121955760405162461bcd60e51b815260206004820152602960248201527f455243313135353a2073657474696e6720617070726f76616c20737461747573604482015268103337b91039b2b63360b91b60648201526084016108e2565b6001600160a01b03838116600081815260016020908152604080832094871680845294825291829020805460ff191686151590811790915591519182527f17307eab39ab6107e8899845ad3d59bd9653f200f220920489ca2b5937696c31910160405180910390a3505050565b6000818310156122125781612214565b825b9392505050565b6001600160a01b0384166122415760405162461bcd60e51b81526004016108e2906134c7565b33612251818787611e88886124ec565b6000848152602081815260408083206001600160a01b038a168452909152902054838110156122925760405162461bcd60e51b81526004016108e29061350c565b6000858152602081815260408083206001600160a01b038b81168552925280832087850390559088168252812080548692906122cf9084906133da565b909155505060408051868152602081018690526001600160a01b03808916928a821692918616917fc3d58168c5ae7397731d063d5bbf3d657854427343f4c083240f7aacaa2d0f62910160405180910390a461232f82888888888861283d565b50505050505050565b60007f00000000000000000000000000000000000000000000000000000000000000006001600160a01b0316634000aea07f0000000000000000000000000000000000000000000000000000000000000000848660006040516020016123a8929190918252602082015260400190565b6040516020818303038152906040526040518463ffffffff1660e01b81526004016123d5939291906135f0565b602060405180830381600087803b1580156123ef57600080fd5b505af1158015612403573d6000803e3d6000fd5b505050506040513d601f19601f8201168201806040525081019061242791906134aa565b50600083815260056020818152604080842054815180840189905280830186905230606082015260808082018390528351808303909101815260a0909101909252815191830191909120938790529190526124839060016133da565b6000858152600560205260409020556110a98482612923565b60006001600160e01b03198216636cdb3d1360e11b14806124cd57506001600160e01b031982166303a24d0760e21b145b8061091c57506301ffc9a760e01b6001600160e01b031983161461091c565b60408051600180825281830190925260609160009190602080830190803683370190505090508281600081518110612526576125266133f2565b602090810291909101015292915050565b6001600160a01b0384163b15611cbe5760405163bc197c8160e01b81526001600160a01b0385169063bc197c819061257b9089908990889088908890600401613617565b602060405180830381600087803b15801561259557600080fd5b505af19250505080156125c5575060408051601f3d908101601f191682019092526125c291810190613675565b60015b612672576125d1613692565b806308c379a0141561260b57506125e66136ae565b806125f1575061260d565b8060405162461bcd60e51b81526004016108e29190612d91565b505b60405162461bcd60e51b815260206004820152603460248201527f455243313135353a207472616e7366657220746f206e6f6e20455243313135356044820152732932b1b2b4bb32b91034b6b83632b6b2b73a32b960611b60648201526084016108e2565b6001600160e01b0319811663bc197c8160e01b1461232f5760405162461bcd60e51b81526004016108e290613737565b606060006126b18360026133bb565b6126bc9060026133da565b6001600160401b038111156126d3576126d3612da4565b6040519080825280601f01601f1916602001820160405280156126fd576020820181803683370190505b509050600360fc1b81600081518110612718576127186133f2565b60200101906001600160f81b031916908160001a905350600f60fb1b81600181518110612747576127476133f2565b60200101906001600160f81b031916908160001a905350600061276b8460026133bb565b6127769060016133da565b90505b60018111156127ee576f181899199a1a9b1b9c1cb0b131b232b360811b85600f16601081106127aa576127aa6133f2565b1a60f81b8282815181106127c0576127c06133f2565b60200101906001600160f81b031916908160001a90535060049490941c936127e78161377f565b9050612779565b5083156122145760405162461bcd60e51b815260206004820181905260248201527f537472696e67733a20686578206c656e67746820696e73756666696369656e7460448201526064016108e2565b6001600160a01b0384163b15611cbe5760405163f23a6e6160e01b81526001600160a01b0385169063f23a6e61906128819089908990889088908890600401613796565b602060405180830381600087803b15801561289b57600080fd5b505af19250505080156128cb575060408051601f3d908101601f191682019092526128c891810190613675565b60015b6128d7576125d1613692565b6001600160e01b0319811663f23a6e6160e01b1461232f5760405162461bcd60e51b81526004016108e290613737565b6000806000612916858561293f565b9150915061104c816129af565b604080516020810184905290810182905260009060600161192c565b6000808251604114156129765760208301516040840151606085015160001a61296a87828585612b6a565b945094505050506129a8565b8251604014156129a05760208301516040840151612995868383612c57565b9350935050506129a8565b506000905060025b9250929050565b60008160048111156129c3576129c36137db565b14156129cc5750565b60018160048111156129e0576129e06137db565b1415612a2e5760405162461bcd60e51b815260206004820152601860248201527f45434453413a20696e76616c6964207369676e6174757265000000000000000060448201526064016108e2565b6002816004811115612a4257612a426137db565b1415612a905760405162461bcd60e51b815260206004820152601f60248201527f45434453413a20696e76616c6964207369676e6174757265206c656e6774680060448201526064016108e2565b6003816004811115612aa457612aa46137db565b1415612afd5760405162461bcd60e51b815260206004820152602260248201527f45434453413a20696e76616c6964207369676e6174757265202773272076616c604482015261756560f01b60648201526084016108e2565b6004816004811115612b1157612b116137db565b14156114c75760405162461bcd60e51b815260206004820152602260248201527f45434453413a20696e76616c6964207369676e6174757265202776272076616c604482015261756560f01b60648201526084016108e2565b6000807f7fffffffffffffffffffffffffffffff5d576e7357a4501ddfe92f46681b20a0831115612ba15750600090506003612c4e565b8460ff16601b14158015612bb957508460ff16601c14155b15612bca5750600090506004612c4e565b6040805160008082526020820180845289905260ff881692820192909252606081018690526080810185905260019060a0016020604051602081039080840390855afa158015612c1e573d6000803e3d6000fd5b5050604051601f1901519150506001600160a01b038116612c4757600060019250925050612c4e565b9150600090505b94509492505050565b6000806001600160ff1b03831660ff84901c601b01612c7887828885612b6a565b935093505050935093915050565b6001600160a01b03811681146114c757600080fd5b60008060408385031215612cae57600080fd5b8235612cb981612c86565b946020939093013593505050565b6001600160e01b0319811681146114c757600080fd5b600060208284031215612cef57600080fd5b813561221481612cc7565b60008060408385031215612d0d57600080fd5b50508035926020909101359150565b600060208284031215612d2e57600080fd5b5035919050565b60005b83811015612d50578181015183820152602001612d38565b83811115612d5f576000848401525b50505050565b60008151808452612d7d816020860160208601612d35565b601f01601f19169290920160200192915050565b6020815260006122146020830184612d65565b634e487b7160e01b600052604160045260246000fd5b601f8201601f191681016001600160401b0381118282101715612ddf57612ddf612da4565b6040525050565b60006001600160401b03821115612dff57612dff612da4565b5060051b60200190565b600082601f830112612e1a57600080fd5b81356020612e2782612de6565b604051612e348282612dba565b83815260059390931b8501820192828101915086841115612e5457600080fd5b8286015b84811015612e6f5780358352918301918301612e58565b509695505050505050565b600082601f830112612e8b57600080fd5b81356001600160401b03811115612ea457612ea4612da4565b604051612ebb601f8301601f191660200182612dba565b818152846020838601011115612ed057600080fd5b816020850160208301376000918101602001919091529392505050565b600080600080600060a08688031215612f0557600080fd5b8535612f1081612c86565b94506020860135612f2081612c86565b935060408601356001600160401b0380821115612f3c57600080fd5b612f4889838a01612e09565b94506060880135915080821115612f5e57600080fd5b612f6a89838a01612e09565b93506080880135915080821115612f8057600080fd5b50612f8d88828901612e7a565b9150509295509295909350565b60008060408385031215612fad57600080fd5b823591506020830135612fbf81612c86565b809150509250929050565b602080825282518282018190526000919060409081850190868401855b8281101561301f57815180518552868101516001600160a01b0316878601528501518585015260609093019290850190600101612fe7565b5091979650505050505050565b6000806040838503121561303f57600080fd5b82356001600160401b038082111561305657600080fd5b818501915085601f83011261306a57600080fd5b8135602061307782612de6565b6040516130848282612dba565b83815260059390931b85018201928281019150898411156130a457600080fd5b948201945b838610156130cb5785356130bc81612c86565b825294820194908201906130a9565b965050860135925050808211156130e157600080fd5b506130ee85828601612e09565b9150509250929050565b600081518084526020808501945080840160005b838110156131285781518752958201959082019060010161310c565b509495945050505050565b60208152600061221460208301846130f8565b60008060006060848603121561315b57600080fd5b833561316681612c86565b92506020840135915060408401356001600160401b0381111561318857600080fd5b61319486828701612e7a565b9150509250925092565b80151581146114c757600080fd5b600080604083850312156131bf57600080fd5b82356131ca81612c86565b91506020830135612fbf8161319e565b6000602082840312156131ec57600080fd5b813561221481612c86565b6000806040838503121561320a57600080fd5b823561321581612c86565b91506020830135612fbf81612c86565b60008083601f84011261323757600080fd5b5081356001600160401b0381111561324e57600080fd5b6020830191508360208260051b85010111156129a857600080fd5b6000806000806000806060878903121561328257600080fd5b86356001600160401b038082111561329957600080fd5b6132a58a838b01613225565b909850965060208901359150808211156132be57600080fd5b6132ca8a838b01613225565b909650945060408901359150808211156132e357600080fd5b506132f089828a01613225565b979a9699509497509295939492505050565b600080600080600060a0868803121561331a57600080fd5b853561332581612c86565b9450602086013561333581612c86565b9350604086013592506060860135915060808601356001600160401b0381111561335e57600080fd5b612f8d88828901612e7a565b600181811c9082168061337e57607f821691505b6020821081141561339f57634e487b7160e01b600052602260045260246000fd5b50919050565b634e487b7160e01b600052601160045260246000fd5b60008160001904831182151516156133d5576133d56133a5565b500290565b600082198211156133ed576133ed6133a5565b500190565b634e487b7160e01b600052603260045260246000fd5b600060001982141561341c5761341c6133a5565b5060010190565b6020808252818101527f4f776e61626c653a2063616c6c6572206973206e6f7420746865206f776e6572604082015260600190565b60008282101561346a5761346a6133a5565b500390565b60008261348c57634e487b7160e01b600052601260045260246000fd5b500690565b6000602082840312156134a357600080fd5b5051919050565b6000602082840312156134bc57600080fd5b81516122148161319e565b60208082526025908201527f455243313135353a207472616e7366657220746f20746865207a65726f206164604082015264647265737360d81b606082015260800190565b6020808252602a908201527f455243313135353a20696e73756666696369656e742062616c616e636520666f60408201526939103a3930b739b332b960b11b606082015260800190565b60408152600061356960408301856130f8565b828103602084015261208881856130f8565b7f416363657373436f6e74726f6c3a206163636f756e74200000000000000000008152600083516135b3816017850160208801612d35565b7001034b99036b4b9b9b4b733903937b6329607d1b60179184019182015283516135e4816028840160208801612d35565b01602801949350505050565b60018060a01b03841681528260208201526060604082015260006120886060830184612d65565b6001600160a01b0386811682528516602082015260a060408201819052600090613643908301866130f8565b828103606084015261365581866130f8565b905082810360808401526136698185612d65565b98975050505050505050565b60006020828403121561368757600080fd5b815161221481612cc7565b600060033d11156136ab5760046000803e5060005160e01c5b90565b600060443d10156136bc5790565b6040516003193d81016004833e81513d6001600160401b0381602484011181841117156136eb57505050505090565b82850191508151818111156137035750505050505090565b843d870101602082850101111561371d5750505050505090565b61372c60208286010187612dba565b509095945050505050565b60208082526028908201527f455243313135353a204552433131353552656365697665722072656a656374656040820152676420746f6b656e7360c01b606082015260800190565b60008161378e5761378e6133a5565b506000190190565b6001600160a01b03868116825285166020820152604081018490526060810183905260a0608082018190526000906137d090830184612d65565b979650505050505050565b634e487b7160e01b600052602160045260246000fdfea2646970667358221220e2a5602e870502bb0a83047896465e1720e2031567b7f50e9851bc1293fbc97964736f6c63430008090033697066733a2f2f516d5a3536575a567855673944774b334d7a5865465a774b513435663858583844376270796768334c5758655a352f7b69647d2e6a736f6e",
  "devdoc": {
    "events": {
      "RaffleEntered(address,uint256)": {
        "params": {
          "currentRaffle": "Index of entry in raffleEntries",
          "user": "Address of raffle participant"
        }
      }
    },
    "kind": "dev",
    "methods": {
      "allowancesSigner()": {
        "returns": {
          "_0": "the allowance signer address"
        }
      },
      "balanceOf(address,uint256)": {
        "details": "See {IERC1155-balanceOf}. Requirements: - `account` cannot be the zero address."
      },
      "balanceOfBatch(address[],uint256[])": {
        "details": "See {IERC1155-balanceOfBatch}. Requirements: - `accounts` and `ids` must have the same length."
      },
      "buildMessages(uint256)": {
        "details": "Each message is signed off-chain and provided to a dApp alongside the encoded data. Minters can submit the data and signature to the L1 NFT contract to mint their assigned token.",
        "params": {
          "raffle": "the raffle tranche"
        },
        "returns": {
          "signables": "messages for signing and the data encoded in each message"
        }
      },
      "createMessage(address,uint256)": {
        "params": {
          "account": "the account to allow",
          "nonce": "the nonce"
        },
        "returns": {
          "_0": "the message to sign"
        }
      },
      "enterRaffle(uint256)": {
        "params": {
          "tokenId": "ERC1155 tokenId determines payment required"
        }
      },
      "getRoleAdmin(bytes32)": {
        "details": "Returns the admin role that controls `role`. See {grantRole} and {revokeRole}. To change a role's admin, use {_setRoleAdmin}."
      },
      "grantRole(bytes32,address)": {
        "details": "Grants `role` to `account`. If `account` had not been already granted `role`, emits a {RoleGranted} event. Requirements: - the caller must have ``role``'s admin role."
      },
      "hasRole(bytes32,address)": {
        "details": "Returns `true` if `account` has been granted `role`."
      },
      "isApprovedForAll(address,address)": {
        "details": "See {IERC1155-isApprovedForAll}."
      },
      "owner()": {
        "details": "Returns the address of the current owner."
      },
      "renounceOwnership()": {
        "details": "Leaves the contract without owner. It will not be possible to call `onlyOwner` functions anymore. Can only be called by the current owner. NOTE: Renouncing ownership will leave the contract without an owner, thereby removing any functionality that is only available to the owner."
      },
      "renounceRole(bytes32,address)": {
        "details": "Revokes `role` from the calling account. Roles are often managed via {grantRole} and {revokeRole}: this function's purpose is to provide a mechanism for accounts to lose their privileges if they are compromised (such as when a trusted device is misplaced). If the calling account had been revoked `role`, emits a {RoleRevoked} event. Requirements: - the caller must be `account`."
      },
      "revokeRole(bytes32,address)": {
        "details": "Revokes `role` from `account`. If `account` had been granted `role`, emits a {RoleRevoked} event. Requirements: - the caller must have ``role``'s admin role."
      },
      "safeBatchTransferFrom(address,address,uint256[],uint256[],bytes)": {
        "details": "See {IERC1155-safeBatchTransferFrom}."
      },
      "safeTransferFrom(address,address,uint256,uint256,bytes)": {
        "details": "See {IERC1155-safeTransferFrom}."
      },
      "setApprovalForAll(address,bool)": {
        "details": "See {IERC1155-setApprovalForAll}."
      },
      "setClearingEntropy()": {
        "details": "VRF has a gas limit on callback which would cause clearing to fail in one tx."
      },
      "transferOwnership(address)": {
        "details": "Transfers ownership of the contract to a new account (`newOwner`). Can only be called by the current owner."
      },
      "uri(uint256)": {
        "details": "See {IERC1155MetadataURI-uri}. This implementation returns the same URI for *all* token types. It relies on the token type ID substitution mechanism https://eips.ethereum.org/EIPS/eip-1155#metadata[defined in the EIP]. Clients calling this function must replace the `\\{id\\}` substring with the actual token type ID."
      },
      "validateSignature(address,uint256,bytes)": {
        "details": "It ensures that _allowancesSigner signed a message containing (account, nonce, address(this))      and that this message was not already used",
        "params": {
          "account": "the account the allowance is associated to",
          "nonce": "the nonce associated to this allowance",
          "signature": "the signature by the allowance signer wallet"
        },
        "returns": {
          "_0": "the message to mark as used"
        }
      }
    },
    "stateVariables": {
      "raffleStartTime": {
        "details": "Tranches will end at start time + TRANCHE_LENGTH * currentRaffle"
      },
      "tokenMap": {
        "details": "1-based"
      },
      "trancheOffset": {
        "details": "Each tranche shuffles entry indices. To calculate the tokenId, we sum trancheOfsset + shuffledEntryIndex"
      }
    },
    "version": 1
  },
  "userdoc": {
    "events": {
      "RaffleEntered(address,uint256)": {
        "notice": "Emitted after a successful raffle entry"
      }
    },
    "kind": "user",
    "methods": {
      "WETH_TOKEN()": {
        "notice": "============ Immutable storage ============"
      },
      "allowancesSigner()": {
        "notice": "Helper to know allowancesSigner address"
      },
      "availableSupply()": {
        "notice": "Track current supply of available NFTs"
      },
      "buildMessages(uint256)": {
        "notice": "Helper that returns minter => tokenId data for signing"
      },
      "clearRaffle()": {
        "notice": "Clear a tranche by shuffling all entries."
      },
      "createMessage(address,uint256)": {
        "notice": "Helper that creates the message that signer needs to sign to allow a mint         this is usually also used when creating the allowances, to ensure \"message\"         is the same"
      },
      "currentRaffle()": {
        "notice": "============ Mutable storage ============Track current raffle tranche"
      },
      "devMintMultiple(address[],address[],address[])": {
        "notice": "============ Admin Functions ============"
      },
      "enterRaffle(uint256)": {
        "notice": "Enters raffle by burning Mint Pass"
      },
      "raffleStartTime()": {
        "notice": "Timestamp for opening raffle 1"
      },
      "setClearingEntropy()": {
        "notice": "Sets entropy to prepare for clearing via shuffle"
      },
      "trancheEntropy(uint256)": {
        "notice": "Entropies per tranche from Chainlink VRF"
      },
      "trancheOffset(uint256)": {
        "notice": "Track tokenId offset for tranches"
      },
      "trancheRaffleEntries(uint256,uint256)": {
        "notice": "Array of raffle entries per tranche"
      },
      "trancheShuffled(uint256)": {
        "notice": "Tranche shuffle status"
      },
      "validateSignature(address,uint256,bytes)": {
        "notice": "This function verifies that the current request is valid"
      }
    },
    "version": 1
  },
  "storageLayout": {
    "storage": [
      {
        "astId": 4880,
        "contract": "contracts/WinnerBelt/WinnerBelt.sol:WinnerBelt",
        "label": "_balances",
        "offset": 0,
        "slot": "0",
        "type": "t_mapping(t_uint256,t_mapping(t_address,t_uint256))"
      },
      {
        "astId": 4886,
        "contract": "contracts/WinnerBelt/WinnerBelt.sol:WinnerBelt",
        "label": "_operatorApprovals",
        "offset": 0,
        "slot": "1",
        "type": "t_mapping(t_address,t_mapping(t_address,t_bool))"
      },
      {
        "astId": 4888,
        "contract": "contracts/WinnerBelt/WinnerBelt.sol:WinnerBelt",
        "label": "_uri",
        "offset": 0,
        "slot": "2",
        "type": "t_string_storage"
      },
      {
        "astId": 4588,
        "contract": "contracts/WinnerBelt/WinnerBelt.sol:WinnerBelt",
        "label": "_owner",
        "offset": 0,
        "slot": "3",
        "type": "t_address"
      },
      {
        "astId": 4073,
        "contract": "contracts/WinnerBelt/WinnerBelt.sol:WinnerBelt",
        "label": "_roles",
        "offset": 0,
        "slot": "4",
        "type": "t_mapping(t_bytes32,t_struct(RoleData)4068_storage)"
      },
      {
        "astId": 79,
        "contract": "contracts/WinnerBelt/WinnerBelt.sol:WinnerBelt",
        "label": "nonces",
        "offset": 0,
        "slot": "5",
        "type": "t_mapping(t_bytes32,t_uint256)"
      },
      {
        "astId": 12041,
        "contract": "contracts/WinnerBelt/WinnerBelt.sol:WinnerBelt",
        "label": "usedAllowances",
        "offset": 0,
        "slot": "6",
        "type": "t_mapping(t_bytes32,t_bool)"
      },
      {
        "astId": 12043,
        "contract": "contracts/WinnerBelt/WinnerBelt.sol:WinnerBelt",
        "label": "_allowancesSigner",
        "offset": 0,
        "slot": "7",
        "type": "t_address"
      },
      {
        "astId": 17519,
        "contract": "contracts/WinnerBelt/WinnerBelt.sol:WinnerBelt",
        "label": "WETH_TOKEN",
        "offset": 0,
        "slot": "8",
        "type": "t_contract(IERC20)11707"
      },
      {
        "astId": 17526,
        "contract": "contracts/WinnerBelt/WinnerBelt.sol:WinnerBelt",
        "label": "LINK_FEE",
        "offset": 0,
        "slot": "9",
        "type": "t_uint256"
      },
      {
        "astId": 17546,
        "contract": "contracts/WinnerBelt/WinnerBelt.sol:WinnerBelt",
        "label": "currentRaffle",
        "offset": 0,
        "slot": "10",
        "type": "t_uint256"
      },
      {
        "astId": 17549,
        "contract": "contracts/WinnerBelt/WinnerBelt.sol:WinnerBelt",
        "label": "availableSupply",
        "offset": 0,
        "slot": "11",
        "type": "t_uint256"
      },
      {
        "astId": 17552,
        "contract": "contracts/WinnerBelt/WinnerBelt.sol:WinnerBelt",
        "label": "raffleStartTime",
        "offset": 0,
        "slot": "12",
        "type": "t_uint256"
      },
      {
        "astId": 17557,
        "contract": "contracts/WinnerBelt/WinnerBelt.sol:WinnerBelt",
        "label": "trancheOffset",
        "offset": 0,
        "slot": "13",
        "type": "t_mapping(t_uint256,t_uint256)"
      },
      {
        "astId": 17563,
        "contract": "contracts/WinnerBelt/WinnerBelt.sol:WinnerBelt",
        "label": "trancheRaffleEntries",
        "offset": 0,
        "slot": "14",
        "type": "t_mapping(t_uint256,t_array(t_address)dyn_storage)"
      },
      {
        "astId": 17568,
        "contract": "contracts/WinnerBelt/WinnerBelt.sol:WinnerBelt",
        "label": "trancheShuffled",
        "offset": 0,
        "slot": "15",
        "type": "t_mapping(t_uint256,t_bool)"
      },
      {
        "astId": 17573,
        "contract": "contracts/WinnerBelt/WinnerBelt.sol:WinnerBelt",
        "label": "trancheEntropy",
        "offset": 0,
        "slot": "16",
        "type": "t_mapping(t_uint256,t_uint256)"
      },
      {
        "astId": 17578,
        "contract": "contracts/WinnerBelt/WinnerBelt.sol:WinnerBelt",
        "label": "tokenMap",
        "offset": 0,
        "slot": "17",
        "type": "t_mapping(t_uint256,t_uint256)"
      }
    ],
    "types": {
      "t_address": {
        "encoding": "inplace",
        "label": "address",
        "numberOfBytes": "20"
      },
      "t_array(t_address)dyn_storage": {
        "base": "t_address",
        "encoding": "dynamic_array",
        "label": "address[]",
        "numberOfBytes": "32"
      },
      "t_bool": {
        "encoding": "inplace",
        "label": "bool",
        "numberOfBytes": "1"
      },
      "t_bytes32": {
        "encoding": "inplace",
        "label": "bytes32",
        "numberOfBytes": "32"
      },
      "t_contract(IERC20)11707": {
        "encoding": "inplace",
        "label": "contract IERC20",
        "numberOfBytes": "20"
      },
      "t_mapping(t_address,t_bool)": {
        "encoding": "mapping",
        "key": "t_address",
        "label": "mapping(address => bool)",
        "numberOfBytes": "32",
        "value": "t_bool"
      },
      "t_mapping(t_address,t_mapping(t_address,t_bool))": {
        "encoding": "mapping",
        "key": "t_address",
        "label": "mapping(address => mapping(address => bool))",
        "numberOfBytes": "32",
        "value": "t_mapping(t_address,t_bool)"
      },
      "t_mapping(t_address,t_uint256)": {
        "encoding": "mapping",
        "key": "t_address",
        "label": "mapping(address => uint256)",
        "numberOfBytes": "32",
        "value": "t_uint256"
      },
      "t_mapping(t_bytes32,t_bool)": {
        "encoding": "mapping",
        "key": "t_bytes32",
        "label": "mapping(bytes32 => bool)",
        "numberOfBytes": "32",
        "value": "t_bool"
      },
      "t_mapping(t_bytes32,t_struct(RoleData)4068_storage)": {
        "encoding": "mapping",
        "key": "t_bytes32",
        "label": "mapping(bytes32 => struct AccessControl.RoleData)",
        "numberOfBytes": "32",
        "value": "t_struct(RoleData)4068_storage"
      },
      "t_mapping(t_bytes32,t_uint256)": {
        "encoding": "mapping",
        "key": "t_bytes32",
        "label": "mapping(bytes32 => uint256)",
        "numberOfBytes": "32",
        "value": "t_uint256"
      },
      "t_mapping(t_uint256,t_array(t_address)dyn_storage)": {
        "encoding": "mapping",
        "key": "t_uint256",
        "label": "mapping(uint256 => address[])",
        "numberOfBytes": "32",
        "value": "t_array(t_address)dyn_storage"
      },
      "t_mapping(t_uint256,t_bool)": {
        "encoding": "mapping",
        "key": "t_uint256",
        "label": "mapping(uint256 => bool)",
        "numberOfBytes": "32",
        "value": "t_bool"
      },
      "t_mapping(t_uint256,t_mapping(t_address,t_uint256))": {
        "encoding": "mapping",
        "key": "t_uint256",
        "label": "mapping(uint256 => mapping(address => uint256))",
        "numberOfBytes": "32",
        "value": "t_mapping(t_address,t_uint256)"
      },
      "t_mapping(t_uint256,t_uint256)": {
        "encoding": "mapping",
        "key": "t_uint256",
        "label": "mapping(uint256 => uint256)",
        "numberOfBytes": "32",
        "value": "t_uint256"
      },
      "t_string_storage": {
        "encoding": "bytes",
        "label": "string",
        "numberOfBytes": "32"
      },
      "t_struct(RoleData)4068_storage": {
        "encoding": "inplace",
        "label": "struct AccessControl.RoleData",
        "members": [
          {
            "astId": 4065,
            "contract": "contracts/WinnerBelt/WinnerBelt.sol:WinnerBelt",
            "label": "members",
            "offset": 0,
            "slot": "0",
            "type": "t_mapping(t_address,t_bool)"
          },
          {
            "astId": 4067,
            "contract": "contracts/WinnerBelt/WinnerBelt.sol:WinnerBelt",
            "label": "adminRole",
            "offset": 0,
            "slot": "1",
            "type": "t_bytes32"
          }
        ],
        "numberOfBytes": "64"
      },
      "t_uint256": {
        "encoding": "inplace",
        "label": "uint256",
        "numberOfBytes": "32"
      }
    }
  }
}